{"abi":[{"type":"constructor","inputs":[{"name":"_config","type":"address","internalType":"address"},{"name":"vrfCoordinator","type":"address","internalType":"address"},{"name":"keyHash","type":"bytes32","internalType":"bytes32"},{"name":"subscriptionId","type":"uint256","internalType":"uint256"}],"stateMutability":"nonpayable"},{"type":"function","name":"COORDINATOR","inputs":[],"outputs":[{"name":"","type":"address","internalType":"contract IVRFCoordinatorV2Plus"}],"stateMutability":"view"},{"type":"function","name":"acceptOwnership","inputs":[],"outputs":[],"stateMutability":"nonpayable"},{"type":"function","name":"allowance","inputs":[{"name":"owner","type":"address","internalType":"address"},{"name":"spender","type":"address","internalType":"address"}],"outputs":[{"name":"","type":"uint256","internalType":"uint256"}],"stateMutability":"view"},{"type":"function","name":"approve","inputs":[{"name":"spender","type":"address","internalType":"address"},{"name":"value","type":"uint256","internalType":"uint256"}],"outputs":[{"name":"","type":"bool","internalType":"bool"}],"stateMutability":"nonpayable"},{"type":"function","name":"balanceOf","inputs":[{"name":"account","type":"address","internalType":"address"}],"outputs":[{"name":"","type":"uint256","internalType":"uint256"}],"stateMutability":"view"},{"type":"function","name":"burnReliable","inputs":[{"name":"account","type":"address","internalType":"address"},{"name":"amount","type":"uint256","internalType":"uint256"}],"outputs":[],"stateMutability":"nonpayable"},{"type":"function","name":"callbackGasLimit","inputs":[],"outputs":[{"name":"","type":"uint32","internalType":"uint32"}],"stateMutability":"view"},{"type":"function","name":"config","inputs":[],"outputs":[{"name":"","type":"address","internalType":"contract AgentboxConfig"}],"stateMutability":"view"},{"type":"function","name":"decimals","inputs":[],"outputs":[{"name":"","type":"uint8","internalType":"uint8"}],"stateMutability":"view"},{"type":"function","name":"gameCore","inputs":[],"outputs":[{"name":"","type":"address","internalType":"address"}],"stateMutability":"view"},{"type":"function","name":"groundTokens","inputs":[{"name":"","type":"uint256","internalType":"uint256"}],"outputs":[{"name":"","type":"uint256","internalType":"uint256"}],"stateMutability":"view"},{"type":"function","name":"lastMintBlock","inputs":[],"outputs":[{"name":"","type":"uint256","internalType":"uint256"}],"stateMutability":"view"},{"type":"function","name":"mintsCount","inputs":[],"outputs":[{"name":"","type":"uint256","internalType":"uint256"}],"stateMutability":"view"},{"type":"function","name":"name","inputs":[],"outputs":[{"name":"","type":"string","internalType":"string"}],"stateMutability":"view"},{"type":"function","name":"owner","inputs":[],"outputs":[{"name":"","type":"address","internalType":"address"}],"stateMutability":"view"},{"type":"function","name":"pendingMintRequests","inputs":[{"name":"","type":"uint256","internalType":"uint256"}],"outputs":[{"name":"","type":"bool","internalType":"bool"}],"stateMutability":"view"},{"type":"function","name":"pickupTokens","inputs":[{"name":"account","type":"address","internalType":"address"},{"name":"x","type":"uint256","internalType":"uint256"},{"name":"y","type":"uint256","internalType":"uint256"}],"outputs":[],"stateMutability":"nonpayable"},{"type":"function","name":"rawFulfillRandomWords","inputs":[{"name":"requestId","type":"uint256","internalType":"uint256"},{"name":"randomWords","type":"uint256[]","internalType":"uint256[]"}],"outputs":[],"stateMutability":"nonpayable"},{"type":"function","name":"requestConfirmations","inputs":[],"outputs":[{"name":"","type":"uint16","internalType":"uint16"}],"stateMutability":"view"},{"type":"function","name":"s_keyHash","inputs":[],"outputs":[{"name":"","type":"bytes32","internalType":"bytes32"}],"stateMutability":"view"},{"type":"function","name":"s_subscriptionId","inputs":[],"outputs":[{"name":"","type":"uint256","internalType":"uint256"}],"stateMutability":"view"},{"type":"function","name":"s_vrfCoordinator","inputs":[],"outputs":[{"name":"","type":"address","internalType":"contract IVRFCoordinatorV2Plus"}],"stateMutability":"view"},{"type":"function","name":"setCoordinator","inputs":[{"name":"_vrfCoordinator","type":"address","internalType":"address"}],"outputs":[],"stateMutability":"nonpayable"},{"type":"function","name":"setGameCore","inputs":[{"name":"_core","type":"address","internalType":"address"}],"outputs":[],"stateMutability":"nonpayable"},{"type":"function","name":"stabilizeBalance","inputs":[{"name":"account","type":"address","internalType":"address"}],"outputs":[],"stateMutability":"nonpayable"},{"type":"function","name":"symbol","inputs":[],"outputs":[{"name":"","type":"string","internalType":"string"}],"stateMutability":"view"},{"type":"function","name":"totalSupply","inputs":[],"outputs":[{"name":"","type":"uint256","internalType":"uint256"}],"stateMutability":"view"},{"type":"function","name":"transfer","inputs":[{"name":"to","type":"address","internalType":"address"},{"name":"value","type":"uint256","internalType":"uint256"}],"outputs":[{"name":"","type":"bool","internalType":"bool"}],"stateMutability":"nonpayable"},{"type":"function","name":"transferFrom","inputs":[{"name":"from","type":"address","internalType":"address"},{"name":"to","type":"address","internalType":"address"},{"name":"value","type":"uint256","internalType":"uint256"}],"outputs":[{"name":"","type":"bool","internalType":"bool"}],"stateMutability":"nonpayable"},{"type":"function","name":"transferOwnership","inputs":[{"name":"to","type":"address","internalType":"address"}],"outputs":[],"stateMutability":"nonpayable"},{"type":"function","name":"transferUnreliableOnDeath","inputs":[{"name":"fromAccount","type":"address","internalType":"address"},{"name":"toAccount","type":"address","internalType":"address"}],"outputs":[],"stateMutability":"nonpayable"},{"type":"function","name":"triggerMint","inputs":[],"outputs":[],"stateMutability":"nonpayable"},{"type":"function","name":"unreliableBalanceOf","inputs":[{"name":"account","type":"address","internalType":"address"}],"outputs":[{"name":"total","type":"uint256","internalType":"uint256"}],"stateMutability":"view"},{"type":"event","name":"Approval","inputs":[{"name":"owner","type":"address","indexed":true,"internalType":"address"},{"name":"spender","type":"address","indexed":true,"internalType":"address"},{"name":"value","type":"uint256","indexed":false,"internalType":"uint256"}],"anonymous":false},{"type":"event","name":"CoordinatorSet","inputs":[{"name":"vrfCoordinator","type":"address","indexed":false,"internalType":"address"}],"anonymous":false},{"type":"event","name":"GameCoreSet","inputs":[{"name":"gameCore","type":"address","indexed":true,"internalType":"address"}],"anonymous":false},{"type":"event","name":"OwnershipTransferRequested","inputs":[{"name":"from","type":"address","indexed":true,"internalType":"address"},{"name":"to","type":"address","indexed":true,"internalType":"address"}],"anonymous":false},{"type":"event","name":"OwnershipTransferred","inputs":[{"name":"from","type":"address","indexed":true,"internalType":"address"},{"name":"to","type":"address","indexed":true,"internalType":"address"}],"anonymous":false},{"type":"event","name":"ReliableBalanceBurned","inputs":[{"name":"account","type":"address","indexed":true,"internalType":"address"},{"name":"amount","type":"uint256","indexed":false,"internalType":"uint256"}],"anonymous":false},{"type":"event","name":"TokensDropped","inputs":[{"name":"landId","type":"uint256","indexed":true,"internalType":"uint256"},{"name":"amount","type":"uint256","indexed":false,"internalType":"uint256"}],"anonymous":false},{"type":"event","name":"TokensPickedUp","inputs":[{"name":"account","type":"address","indexed":true,"internalType":"address"},{"name":"landId","type":"uint256","indexed":true,"internalType":"uint256"},{"name":"amount","type":"uint256","indexed":false,"internalType":"uint256"}],"anonymous":false},{"type":"event","name":"TokensStabilized","inputs":[{"name":"account","type":"address","indexed":true,"internalType":"address"},{"name":"amount","type":"uint256","indexed":false,"internalType":"uint256"}],"anonymous":false},{"type":"event","name":"Transfer","inputs":[{"name":"from","type":"address","indexed":true,"internalType":"address"},{"name":"to","type":"address","indexed":true,"internalType":"address"},{"name":"value","type":"uint256","indexed":false,"internalType":"uint256"}],"anonymous":false},{"type":"event","name":"UnreliableBalanceTransferred","inputs":[{"name":"fromAccount","type":"address","indexed":true,"internalType":"address"},{"name":"toAccount","type":"address","indexed":true,"internalType":"address"},{"name":"amount","type":"uint256","indexed":false,"internalType":"uint256"}],"anonymous":false},{"type":"error","name":"ERC20InsufficientAllowance","inputs":[{"name":"spender","type":"address","internalType":"address"},{"name":"allowance","type":"uint256","internalType":"uint256"},{"name":"needed","type":"uint256","internalType":"uint256"}]},{"type":"error","name":"ERC20InsufficientBalance","inputs":[{"name":"sender","type":"address","internalType":"address"},{"name":"balance","type":"uint256","internalType":"uint256"},{"name":"needed","type":"uint256","internalType":"uint256"}]},{"type":"error","name":"ERC20InvalidApprover","inputs":[{"name":"approver","type":"address","internalType":"address"}]},{"type":"error","name":"ERC20InvalidReceiver","inputs":[{"name":"receiver","type":"address","internalType":"address"}]},{"type":"error","name":"ERC20InvalidSender","inputs":[{"name":"sender","type":"address","internalType":"address"}]},{"type":"error","name":"ERC20InvalidSpender","inputs":[{"name":"spender","type":"address","internalType":"address"}]},{"type":"error","name":"InsufficientReliableBalance","inputs":[]},{"type":"error","name":"OnlyCoordinatorCanFulfill","inputs":[{"name":"have","type":"address","internalType":"address"},{"name":"want","type":"address","internalType":"address"}]},{"type":"error","name":"OnlyGameCore","inputs":[]},{"type":"error","name":"OnlyOwnerOrCoordinator","inputs":[{"name":"have","type":"address","internalType":"address"},{"name":"owner","type":"address","internalType":"address"},{"name":"coordinator","type":"address","internalType":"address"}]},{"type":"error","name":"PleaseStabilizeBalanceFirst","inputs":[]},{"type":"error","name":"TooEarly","inputs":[]},{"type":"error","name":"ZeroAddress","inputs":[]}],"bytecode":{"object":"0x608034620003ec576001600160401b0390601f601f1962001ff43881900383810183168501919086831186841017620002fb57808692608094604052833981010312620003ec57620000518362000410565b60206200006081860162000410565b92606060408701519601519662000076620003f0565b95600c87526b20b3b2b73a3137bc21b7b4b760a11b8488015262000099620003f0565b966003918289526241474360e81b868a01528151848111620002fb5783546001938482811c92168015620003e1575b89831014620003cd5781848493116200037a575b5088908483116001146200031b575f926200030f575b50505f1982861b1c191690831b1783555b8851938411620002fb5760049889548381811c91168015620002f0575b88821014620002dd5782811162000295575b50869185116001146200023057849550908492915f9562000224575b50501b925f19911b1c19161784555b3315620001e15750600580546001600160a01b03199081163317909155926001600160a01b03928316908115620001d2575083600754161760075564030007a12065ffffffffffff19600c541617600c5516906008541617600855600b55600a5543600f55604051611bce9081620004268239f35b60405163d92e233d60e01b8152fd5b836064916040519162461bcd60e51b8352820152601860248201527f43616e6e6f7420736574206f776e657220746f207a65726f00000000000000006044820152fd5b015193505f806200014e565b929194841692895f5284875f20945f5b89898383106200027d575050501062000263575b50505050811b0184556200015d565b01519060f8845f19921b161c191690555f80808062000254565b86860151895590970196948501948893500162000240565b8a5f52875f208380880160051c8201928a8910620002d3575b0160051c019084905b828110620002c757505062000132565b5f8155018490620002b7565b92508192620002ae565b60228b634e487b7160e01b5f525260245ffd5b90607f169062000120565b634e487b7160e01b5f52604160045260245ffd5b015190505f80620000f2565b908886941691875f528a5f20925f5b8c8282106200036357505084116200034b575b505050811b01835562000103565b01515f1983881b60f8161c191690555f80806200033d565b83850151865589979095019493840193016200032a565b909150855f52885f208480850160051c8201928b8610620003c3575b918791869594930160051c01915b828110620003b4575050620000dc565b5f8155859450879101620003a4565b9250819262000396565b634e487b7160e01b5f52602260045260245ffd5b91607f1691620000c8565b5f80fd5b60408051919082016001600160401b03811183821017620002fb57604052565b51906001600160a01b0382168203620003ec5756fe608060409080825260049081361015610016575f80fd5b5f3560e01c90816306fdde031461130757508063095ea7b31461125e57806309e8f13f146110e65780631311c29314610ec957806318160ddd14610eab5780631fe543e314610e1e57806323b872dd14610d2d57806324f7469714610d09578063313ce56714610cee57806337fb6b9214610cc15780633b2bcbf114610c9957806345bb327b14610c7b5780634e5d4f7b14610c5357806370a0823114610c1d57806379502c5514610bf557806379ba509714610b455780637f8fdf1914610b195780638083f7cd1461087e5780638ac00021146108605780638da5cb5b146108385780638ea981171461076e57806395d89b41146106545780639cf5c3f5146106365780639eccacf61461060e578063a9059cbb146105de578063b0fb162f146105bb578063b90f5d6414610598578063c3bfb7801461033a578063cadbcc6d146102d4578063dd62ed3e1461028b578063e2cfe2ef14610263578063e96c657c146102455763f2fde38b1461018b575f80fd5b34610241576020366003190112610241576101a4611443565b906101ad611b46565b6001600160a01b03918216923384146101fe575050600680546001600160a01b03191683179055600554167fed8889f560326eb138920d842192f0eb3dd22b4f139c87a2c57538e05bae12785f80a3005b906020606492519162461bcd60e51b8352820152601760248201527f43616e6e6f74207472616e7366657220746f2073656c660000000000000000006044820152fd5b5f80fd5b8234610241575f366003190112610241576020906010549051908152f35b8234610241575f3660031901126102415760115490516001600160a01b039091168152602090f35b82346102415780600319360112610241576020906102a7611443565b6102af611459565b9060018060a01b038091165f5260018452825f2091165f528252805f20549051908152f35b34610241576020366003190112610241576102ed611443565b6102f5611b46565b601180546001600160a01b0319166001600160a01b039290921691821790557f962bae5aed24b76211f2b2cba9c2133a4ee5ae02913cf1af64f7386c1c4b3dd75f80a2005b5034610241578160031936011261024157610353611443565b61035b611459565b60115490936001600160a01b0391821633036105895761037a836114ef565b9082841693845f52602093600e8552825f208054905f815581610539575b5050836103a157005b6103aa88611642565b871695865f52600e8552825f20908154918215159081610514575b50806104c9575b1561045e57875f52600e8652835f20905f19830192831161044b57507f8c6b15ffdf57e39be50571f2af7a5f2714917f6289a14211ffedd447bdd0ecb996979861041a61043d9387936115bb565b506104268382546114e2565b90555b60ff19936001856013541617601355611a0e565b6013541660135551908152a3005b601190634e487b7160e01b5f525260245ffd5b90603211156104bb575061043d8387987f8c6b15ffdf57e39be50571f2af7a5f2714917f6289a14211ffedd447bdd0ecb997985f52600e87526104b6855f208651906104a98261146f565b848252438a8301526115e8565b610429565b825163109b0c6960e11b8152fd5b50875f52600e8652835f205f198301908382116105015760016104f16032936104fa936115bb565b500154436114c1565b11156103cc565b601183634e487b7160e01b5f525260245ffd5b5f19840191508382116105015760019161052d916115bb565b5001544310155f6103c5565b6001906001600160ff1b0383168303610576575f52865f209160011b8201915b8281106105665750610398565b5f80825582820155600201610559565b60118a634e487b7160e01b5f525260245ffd5b51637461dafb60e01b81528390fd5b34610241576020366003190112610241576105b96105b4611443565b611642565b005b8234610241575f36600319011261024157600c549051602091821c61ffff168152f35b82346102415780600319360112610241576020906106076105fd611443565b6024359033611a0e565b5160018152f35b8234610241575f3660031901126102415760075490516001600160a01b039091168152602090f35b8234610241575f36600319011261024157602090600f549051908152f35b509034610241575f366003190112610241578051905f9083549160018360011c9060018516968715610764575b602095868410891461075157868899858a98999a5291825f1461072a5750506001146106ce575b5050506106ca92916106bb91038561149f565b51928284938452830190611405565b0390f35b5f90815286935091907f8a35acfbc15ff81a39ae7d344fd709f28e8600b4aa8c65c6b64bfe7fe36bd19b5b82841061071257505050820101816106bb6106ca6106a8565b8054848a0186015288955087949093019281016106f9565b60ff19168782015293151560051b860190930193508492506106bb91506106ca90506106a8565b602282634e487b7160e01b5f525260245ffd5b91607f1691610681565b50903461024157602036600319011261024157610789611443565b6005546001600160a01b0391908216338114158061082a575b6108025750169182156107f4577fd1a6a14209a385a964d036e404cb5cfb71f4000cdb03c9366292430787261be660208484816bffffffffffffffffffffffff60a01b600754161760075551908152a1005b905163d92e233d60e01b8152fd5b600754845163061db9c160e01b81523381880152602481019290925283166044820152606490fd5b5082600754163314156107a2565b8234610241575f3660031901126102415760055490516001600160a01b039091168152602090f35b8234610241575f36600319011261024157602090600a549051908152f35b503461024157606036600319011261024157610898611443565b6011546001600160a01b039081163303610b0957806008541690845180926308d0491960e41b8252818660209586935afa8015610aff575f90610ad0575b6108ef91506108ea602435916044356115a8565b6114e2565b93845f52600d8352855f20918254928361090557005b5f9055841693845f52600e8452865f2054906032821015610ab5575b5080151580610a8e575b80610a4c575b15610a0b57845f52600e8452865f205f1982019182116105015790610955916115bb565b506109618382546114e2565b90555b60ff1990600182601354161760135584156109f55750947fff0009322e24995913be239622564f11309cdd89ea1167658ea15cd60816647c9394956109ab836002546114e2565b600255855f525f8452815f20838154019055855f7fddf252ad1be2c89b69c2b068fc378daa952ba7f163c4a11628f55a4df523b3ef868551878152a36013541660135551908152a3005b6024905f88519163ec442f0560e01b8352820152fd5b60321115610a3e57835f52600e8352610a39865f20875190610a2c8261146f565b84825243868301526115e8565b610964565b855163109b0c6960e11b8152fd5b50845f52600e8452865f205f19820190828211610a7b5760016104f1603293610a74936115bb565b1115610931565b601184634e487b7160e01b5f525260245ffd5b50865f205f19820190828211610a7b57600191610aaa916115bb565b50015443101561092b565b610abf9150611642565b835f52600e8352855f20545f610921565b508281813d8311610af8575b610ae6818361149f565b81010312610241576108ef90516108d6565b503d610adc565b86513d5f823e3d90fd5b8351637461dafb60e01b81528390fd5b823461024157602036600319011261024157602090610b3e610b39611443565b6114ef565b9051908152f35b509034610241575f36600319011261024157600654916001600160a01b03918284163303610bb9575050600554916bffffffffffffffffffffffff60a01b903382851617600555166006553391167f8be0079c531659141344cd1fd0a4f28419497f9722a3daafe3b4186f6b6457e05f80a3005b906020606492519162461bcd60e51b8352820152601660248201527526bab9ba10313290383937b837b9b2b21037bbb732b960511b6044820152fd5b8234610241575f3660031901126102415760085490516001600160a01b039091168152602090f35b8234610241576020366003190112610241576020906001600160a01b03610c42611443565b165f525f8252805f20549051908152f35b50903461024157602036600319011261024157602091355f52600d8252805f20549051908152f35b8234610241575f36600319011261024157602090600b549051908152f35b8234610241575f3660031901126102415760095490516001600160a01b039091168152602090f35b50903461024157602036600319011261024157602091355f526012825260ff815f20541690519015158152f35b8234610241575f366003190112610241576020905160128152f35b8234610241575f3660031901126102415760209063ffffffff600c54169051908152f35b503461024157606036600319011261024157610d47611443565b610d4f611459565b906044359260018060a01b038216805f526001602052855f20335f52602052855f2054915f198310610d8a575b602087610607888888611a0e565b858310610df2578115610ddc573315610dc657505f90815260016020908152868220338352815290869020918590039091558290610607610d7c565b6024905f885191634a1406b160e11b8352820152fd5b6024905f88519163e602df0560e01b8352820152fd5b8651637dc7a0d960e11b8152339181019182526020820193909352604081018690528291506060010390fd5b5090346102415780600319360112610241576024359167ffffffffffffffff9182841161024157366023850112156102415783820135928311610241573660248460051b86010111610241576007546001600160a01b03169033829003610e8f57505060246105b993019035611816565b60449350519163073e64fd60e21b835233908301526024820152fd5b8234610241575f366003190112610241576020906002549051908152f35b509034610241575f36600319011261024157600f5460085482516311f0aa9d60e31b81526020926001600160a01b0392849083908890829087165afa9081156110dc575f916110ab575b610f1d92506114e2565b431061109c5743600f556007541690600b54600a5492600c5461ffff9063ffffffff908751928684019567ffffffffffffffff9685811088821117611089578a525f855289519463125fa26760e31b898701525115156024860152602485526060850196858810818911176110895761012086019081118882101761108957848c948a999897948a97948e9485528a52608086019c8d5260a0860181838a1c1681528360c088019316835260e0870194600186526101008801978852519d8e9b8c9a8b9a634d8e1c2f60e11b8c528b01525160248a01525160448901525116606487015251166084850152511660a48301525160c4820160c0905260e4820161102591611405565b03915a905f91f1801561107f575f90611051575b601292505f52525f20600160ff198254161790555f80f35b508082813d8311611078575b611067818361149f565b810103126102415760129151611039565b503d61105d565b83513d5f823e3d90fd5b60418c634e487b7160e01b5f525260245ffd5b50505163085de62560e01b8152fd5b90508382813d83116110d5575b6110c2818361149f565b8101031261024157610f1d915190610f13565b503d6110b8565b85513d5f823e3d90fd5b509034610241578060031936011261024157611100611443565b6011546001600160a01b0393602435939291851633036112505761112382611642565b61112c826114ef565b94821694855f525f602052835f2054908082115f146112485761114e916114c1565b841161123a5760ff19916001836013541617601355851561122457855f525f602052835f2054918583106111f057867f6d65efc29d26b90aa52d61e5c2dabaebf0bbf40d3bce561cd24189ba6083d34c60208888888289875f525f865203825f205582600254036002555f867fddf252ad1be2c89b69c2b068fc378daa952ba7f163c4a11628f55a4df523b3ef868551878152a36013541660135551908152a2005b845163391434e360e21b81526001600160a01b03909216908201908152602081018390526040810186905281906060010390fd5b8351634b637e8f60e11b81525f81840152602490fd5b825163a8dd40c160e01b8152fd5b50505f61114e565b8251637461dafb60e01b8152fd5b509034610241578060031936011261024157611278611443565b6024359033156112f1576001600160a01b03169081156112db5760209350335f5260018452825f20825f52845280835f205582519081527f8c5be1e5ebec7d5bd14f71427d1e84f3dd0314c0f7b2291e5b200ac8c7c3b925843392a35160018152f35b8251634a1406b160e11b81525f81860152602490fd5b825163e602df0560e01b81525f81860152602490fd5b90508234610241575f366003190112610241575f906003549160018360011c90600185169485156113fb575b60209586841081146113e8578388528794939291879082156113c657505060011461136b575b50506106ca92916106bb91038561149f565b9085925060035f527fc2575a0e9e593c00f959f8c92f12db2869c3395a3b0502d05e2516446f71f85b915f925b8284106113ae57505050820101816106bb611359565b8054848a018601528895508794909301928101611398565b60ff19168682015292151560051b850190920192508391506106bb9050611359565b602289634e487b7160e01b5f525260245ffd5b91607f1691611333565b91908251928382525f5b84811061142f575050825f602080949584010152601f8019910116010190565b60208183018101518483018201520161140f565b600435906001600160a01b038216820361024157565b602435906001600160a01b038216820361024157565b6040810190811067ffffffffffffffff82111761148b57604052565b634e487b7160e01b5f52604160045260245ffd5b90601f8019910116810190811067ffffffffffffffff82111761148b57604052565b919082039182116114ce57565b634e487b7160e01b5f52601160045260245ffd5b919082018092116114ce57565b905f9160018060a01b03165f526020600e81526040805f2090815467ffffffffffffffff811161148b576040519260059261152e83851b87018661149f565b8285525f91825285822090868087015b85851061157b575050505050505f945b82518610156115745761156c6001918588851b8601015151906114e2565b95019461154e565b9450505050565b600191600291845161158c8161146f565b865481528487015483820152815201930193019291879061153e565b818102929181159184041417156114ce57565b80548210156115d4575f5260205f209060011b01905f90565b634e487b7160e01b5f52603260045260245ffd5b80546801000000000000000081101561148b5761160a916001820181556115bb565b919091611621576020816001925184550151910155565b634e487b7160e01b5f525f60045260245ffd5b5f1981146114ce5760010190565b6008546040516313d0fb7f60e01b81526004939290916020916001600160a01b0391839085908890829086165afa93841561180b575f946117dc575b5016805f52600e825260405f20935f905f925b8654928385101561179f576116a685896115bb565b50906116b7886001809401546114e2565b431061178c576116d3906116cb878b6115bb565b5054906114e2565b935f1990818101908111611779576116eb908a6115bb565b506116f6878b6115bb565b919091611767578084918303611755575b5050508854801561174257019061171e828a6115bb565b611730575f8082559101558755611691565b5f8b634e487b7160e01b82525260245ffd5b60318b634e487b7160e01b5f525260245ffd5b805483558101549101555f8281611707565b5f8c634e487b7160e01b82525260245ffd5b60118b634e487b7160e01b5f525260245ffd5b9350509261179990611634565b92611691565b9550955095505050816117b157505050565b7f3f47886b575e250bc3bde0725450607f1443a2f545fed1cb64dd8c10031dc29591604051908152a2565b9093508281813d8311611804575b6117f4818361149f565b810103126102415751925f61167e565b503d6117ea565b6040513d5f823e3d90fd5b5f526020601281526040805f20805460ff8116611836575b505050505050565b60ff19169055620271006010541015611a085760085481516308d0491960e41b81526001600160a01b03909116948382600481895afa91821561107f575f926119d9575b50825163e70b525960e01b81529084826004818a5afa9182156119cf575f926119a0575b50156115d4576118ad916115a8565b92831561198c576004938391350694825194858092630b45798360e31b82525afa908115611983575f91611934575b7fb5de1a3b68c7543bb7eb7aa12c77a4ffb94b67590cbb37bbf71f9ce66a72f5429350845f52600d8352805f206119148382546114e2565b9055611921601054611634565b60105551908152a25f808080808061182e565b90508183813d831161197c575b61194b818361149f565b81010312610241577fb5de1a3b68c7543bb7eb7aa12c77a4ffb94b67590cbb37bbf71f9ce66a72f5429251906118dc565b503d611941565b513d5f823e3d90fd5b634e487b7160e01b5f52601260045260245ffd5b9091508481813d83116119c8575b6119b8818361149f565b810103126102415751905f61189e565b503d6119ae565b84513d5f823e3d90fd5b9091508381813d8311611a01575b6119f1818361149f565b810103126102415751905f61187a565b503d6119e7565b50505050565b916001600160a01b03808416928315611b2e5716928315611b165760ff6013541615611ac4575b825f525f60205260405f205490828210611a925750817fddf252ad1be2c89b69c2b068fc378daa952ba7f163c4a11628f55a4df523b3ef92602092855f525f84520360405f2055845f5260405f20818154019055604051908152a3565b60405163391434e360e21b81526001600160a01b03919091166004820152602481019190915260448101829052606490fd5b611acd81611642565b611ad6816114ef565b835f525f60205260405f2054908082115f14611b0e57611af5916114c1565b821115611a355760405163a8dd40c160e01b8152600490fd5b50505f611af5565b60405163ec442f0560e01b81525f6004820152602490fd5b604051634b637e8f60e11b81525f6004820152602490fd5b6005546001600160a01b03163303611b5a57565b60405162461bcd60e51b815260206004820152601660248201527527b7363c9031b0b63630b1363290313c9037bbb732b960511b6044820152606490fdfea2646970667358221220eb3264ec9a8f7b790a42c2813c772d982d3e07af73cd9c57fd0103da1046b6d764736f6c63430008180033","linkReferences":{}},"methodIdentifiers":{"COORDINATOR()":"3b2bcbf1","acceptOwnership()":"79ba5097","allowance(address,address)":"dd62ed3e","approve(address,uint256)":"095ea7b3","balanceOf(address)":"70a08231","burnReliable(address,uint256)":"09e8f13f","callbackGasLimit()":"24f74697","config()":"79502c55","decimals()":"313ce567","gameCore()":"e2cfe2ef","groundTokens(uint256)":"4e5d4f7b","lastMintBlock()":"9cf5c3f5","mintsCount()":"e96c657c","name()":"06fdde03","owner()":"8da5cb5b","pendingMintRequests(uint256)":"37fb6b92","pickupTokens(address,uint256,uint256)":"8083f7cd","rawFulfillRandomWords(uint256,uint256[])":"1fe543e3","requestConfirmations()":"b0fb162f","s_keyHash()":"45bb327b","s_subscriptionId()":"8ac00021","s_vrfCoordinator()":"9eccacf6","setCoordinator(address)":"8ea98117","setGameCore(address)":"cadbcc6d","stabilizeBalance(address)":"b90f5d64","symbol()":"95d89b41","totalSupply()":"18160ddd","transfer(address,uint256)":"a9059cbb","transferFrom(address,address,uint256)":"23b872dd","transferOwnership(address)":"f2fde38b","transferUnreliableOnDeath(address,address)":"c3bfb780","triggerMint()":"1311c293","unreliableBalanceOf(address)":"7f8fdf19"},"id":83}