{"abi":[{"type":"constructor","inputs":[{"name":"vrfCoordinator","type":"address","internalType":"address"},{"name":"keyHash","type":"bytes32","internalType":"bytes32"},{"name":"subscriptionId","type":"uint256","internalType":"uint256"}],"stateMutability":"nonpayable"},{"type":"function","name":"COORDINATOR","inputs":[],"outputs":[{"name":"","type":"address","internalType":"contract IVRFCoordinatorV2Plus"}],"stateMutability":"view"},{"type":"function","name":"acceptOwnership","inputs":[],"outputs":[],"stateMutability":"nonpayable"},{"type":"function","name":"callbackGasLimit","inputs":[],"outputs":[{"name":"","type":"uint32","internalType":"uint32"}],"stateMutability":"view"},{"type":"function","name":"gameCore","inputs":[],"outputs":[{"name":"","type":"address","internalType":"address"}],"stateMutability":"view"},{"type":"function","name":"owner","inputs":[],"outputs":[{"name":"","type":"address","internalType":"address"}],"stateMutability":"view"},{"type":"function","name":"rawFulfillRandomWords","inputs":[{"name":"requestId","type":"uint256","internalType":"uint256"},{"name":"randomWords","type":"uint256[]","internalType":"uint256[]"}],"outputs":[],"stateMutability":"nonpayable"},{"type":"function","name":"requestConfirmations","inputs":[],"outputs":[{"name":"","type":"uint16","internalType":"uint16"}],"stateMutability":"view"},{"type":"function","name":"requestNPCRefresh","inputs":[{"name":"npcId","type":"uint256","internalType":"uint256"}],"outputs":[{"name":"requestId","type":"uint256","internalType":"uint256"}],"stateMutability":"nonpayable"},{"type":"function","name":"requestRespawn","inputs":[{"name":"roleId","type":"uint256","internalType":"uint256"}],"outputs":[{"name":"requestId","type":"uint256","internalType":"uint256"}],"stateMutability":"nonpayable"},{"type":"function","name":"requestSpawn","inputs":[{"name":"roleId","type":"uint256","internalType":"uint256"}],"outputs":[{"name":"requestId","type":"uint256","internalType":"uint256"}],"stateMutability":"nonpayable"},{"type":"function","name":"requests","inputs":[{"name":"","type":"uint256","internalType":"uint256"}],"outputs":[{"name":"reqType","type":"uint8","internalType":"enum AgentboxRandomizer.RequestType"},{"name":"targetId","type":"uint256","internalType":"uint256"},{"name":"requestBlock","type":"uint256","internalType":"uint256"},{"name":"status","type":"uint8","internalType":"enum AgentboxRandomizer.RequestStatus"}],"stateMutability":"view"},{"type":"function","name":"retryRequest","inputs":[{"name":"oldRequestId","type":"uint256","internalType":"uint256"}],"outputs":[{"name":"newRequestId","type":"uint256","internalType":"uint256"}],"stateMutability":"nonpayable"},{"type":"function","name":"s_keyHash","inputs":[],"outputs":[{"name":"","type":"bytes32","internalType":"bytes32"}],"stateMutability":"view"},{"type":"function","name":"s_subscriptionId","inputs":[],"outputs":[{"name":"","type":"uint256","internalType":"uint256"}],"stateMutability":"view"},{"type":"function","name":"s_vrfCoordinator","inputs":[],"outputs":[{"name":"","type":"address","internalType":"contract IVRFCoordinatorV2Plus"}],"stateMutability":"view"},{"type":"function","name":"setCoordinator","inputs":[{"name":"_vrfCoordinator","type":"address","internalType":"address"}],"outputs":[],"stateMutability":"nonpayable"},{"type":"function","name":"setGameCore","inputs":[{"name":"_core","type":"address","internalType":"address"}],"outputs":[],"stateMutability":"nonpayable"},{"type":"function","name":"transferOwnership","inputs":[{"name":"to","type":"address","internalType":"address"}],"outputs":[],"stateMutability":"nonpayable"},{"type":"event","name":"CoordinatorSet","inputs":[{"name":"vrfCoordinator","type":"address","indexed":false,"internalType":"address"}],"anonymous":false},{"type":"event","name":"GameCoreSet","inputs":[{"name":"gameCore","type":"address","indexed":true,"internalType":"address"}],"anonymous":false},{"type":"event","name":"OwnershipTransferRequested","inputs":[{"name":"from","type":"address","indexed":true,"internalType":"address"},{"name":"to","type":"address","indexed":true,"internalType":"address"}],"anonymous":false},{"type":"event","name":"OwnershipTransferred","inputs":[{"name":"from","type":"address","indexed":true,"internalType":"address"},{"name":"to","type":"address","indexed":true,"internalType":"address"}],"anonymous":false},{"type":"event","name":"RandomRequestCreated","inputs":[{"name":"requestId","type":"uint256","indexed":true,"internalType":"uint256"},{"name":"requestType","type":"uint8","indexed":true,"internalType":"uint8"},{"name":"targetId","type":"uint256","indexed":true,"internalType":"uint256"},{"name":"requestBlock","type":"uint256","indexed":false,"internalType":"uint256"}],"anonymous":false},{"type":"event","name":"RandomRequestFulfilled","inputs":[{"name":"requestId","type":"uint256","indexed":true,"internalType":"uint256"},{"name":"requestType","type":"uint8","indexed":false,"internalType":"uint8"},{"name":"targetId","type":"uint256","indexed":false,"internalType":"uint256"},{"name":"randomWord","type":"uint256","indexed":false,"internalType":"uint256"}],"anonymous":false},{"type":"event","name":"RandomRequestIgnored","inputs":[{"name":"requestId","type":"uint256","indexed":true,"internalType":"uint256"},{"name":"requestType","type":"uint8","indexed":false,"internalType":"uint8"},{"name":"targetId","type":"uint256","indexed":false,"internalType":"uint256"},{"name":"status","type":"uint8","indexed":false,"internalType":"uint8"}],"anonymous":false},{"type":"event","name":"RandomRequestRetried","inputs":[{"name":"oldRequestId","type":"uint256","indexed":true,"internalType":"uint256"},{"name":"newRequestId","type":"uint256","indexed":true,"internalType":"uint256"},{"name":"requestType","type":"uint8","indexed":false,"internalType":"uint8"},{"name":"targetId","type":"uint256","indexed":false,"internalType":"uint256"},{"name":"requestBlock","type":"uint256","indexed":false,"internalType":"uint256"}],"anonymous":false},{"type":"error","name":"OnlyCoordinatorCanFulfill","inputs":[{"name":"have","type":"address","internalType":"address"},{"name":"want","type":"address","internalType":"address"}]},{"type":"error","name":"OnlyGameCore","inputs":[]},{"type":"error","name":"OnlyOwnerOrCoordinator","inputs":[{"name":"have","type":"address","internalType":"address"},{"name":"owner","type":"address","internalType":"address"},{"name":"coordinator","type":"address","internalType":"address"}]},{"type":"error","name":"RequestDoesNotExist","inputs":[]},{"type":"error","name":"TooEarlyToRetry","inputs":[]},{"type":"error","name":"ZeroAddress","inputs":[]}],"bytecode":{"object":"0x60803461010857601f61150538819003918201601f19168301916001600160401b0383118484101761010c578084926060946040528339810103126101085780516001600160a01b038116919082900361010857604060208201519101519133156100c3575f80546001600160a01b0319908116331790915581156100b157600254161760025564030007a12065ffffffffffff1960065416176006556005556004556040516113e490816101218239f35b60405163d92e233d60e01b8152600490fd5b60405162461bcd60e51b815260206004820152601860248201527f43616e6e6f7420736574206f776e657220746f207a65726f00000000000000006044820152606490fd5b5f80fd5b634e487b7160e01b5f52604160045260245ffdfe6080806040526004361015610012575f80fd5b5f3560e01c9081631fe543e314610e0e5750806324f7469714610deb5780632726334014610ade5780633b2bcbf114610ab6578063440e31f2146108d757806345bb327b146108ba57806379ba50971461081557806381d12c58146107b15780638ac00021146107945780638da5cb5b1461076d5780638ea98117146106a35780639eccacf61461067b578063a938ec481461049c578063b0fb162f14610479578063cadbcc6d146103f6578063cbaa65f3146101ca578063e2cfe2ef1461019e5763f2fde38b146100e2575f80fd5b3461019a57602036600319011261019a576004356001600160a01b038181169182900361019a5761011161133d565b33821461015557816001600160601b0360a01b60015416176001555f54167fed8889f560326eb138920d842192f0eb3dd22b4f139c87a2c57538e05bae12785f80a3005b60405162461bcd60e51b815260206004820152601760248201527f43616e6e6f74207472616e7366657220746f2073656c660000000000000000006044820152606490fd5b5f80fd5b3461019a575f36600319011261019a5760065460405160309190911c6001600160a01b03168152602090f35b3461019a5760208060031936011261019a576006546004356001600160a01b03603083901c811633036103e457839060025416600554906004549461ffff63ffffffff90816040519361021c85610efd565b5f85526040519463125fa26760e31b8987015251151560248601526024855261024485610f35565b6040519661025188610f19565b8752878701998a52604087019280828a1c16845282606089019216825260808801936001855260a089019687526040519b8c99634d8e1c2f60e11b8b528b60048c01525160248b01525160448a01525116606488015251166084860152511660a48401525160c060c48401528051908160e4850152845f5b8381106103cb575050505f8391826101049183838284010152601f801991011681010301925af19182156103c0575f92610391575b5061037160405161030e81610eb9565b5f8152600385820184815260408301438152606084019160018352875f526007895260405f20945161033f81610e9b565b61034881610e9b565b60ff80198754169116178555516001850155516002840155519161036b83610e9b565b01610fbc565b5f825f8051602061138f83398151915285604051438152a4604051908152f35b9091508281813d83116103b9575b6103a98183610f51565b8101031261019a575190836102fe565b503d61039f565b6040513d5f823e3d90fd5b82810182015189820161010401528895508691016102c9565b604051637461dafb60e01b8152600490fd5b3461019a57602036600319011261019a576004356001600160a01b0381169081810361019a5761042461133d565b600680546601000000000000600160d01b03191660309290921b6601000000000000600160d01b03169190911790557f962bae5aed24b76211f2b2cba9c2133a4ee5ae02913cf1af64f7386c1c4b3dd75f80a2005b3461019a575f36600319011261019a57602060065461ffff60405191831c168152f35b3461019a5760208060031936011261019a576006546004356001600160a01b03603083901c811633036103e457839060025416600554906004549461ffff63ffffffff9081604051936104ee85610efd565b5f85526040519463125fa26760e31b8987015251151560248601526024855261051685610f35565b6040519661052388610f19565b8752878701998a52604087019280828a1c16845282606089019216825260808801936001855260a089019687526040519b8c99634d8e1c2f60e11b8b528b60048c01525160248b01525160448a01525116606488015251166084860152511660a48401525160c060c48401528051908160e4850152845f5b838110610662575050505f8391826101049183838284010152601f801991011681010301925af19182156103c0575f92610633575b506106126040516105e081610eb9565b60018152600385820184815260408301438152606084019160018352875f526007895260405f20945161033f81610e9b565b6001825f8051602061138f83398151915285604051438152a4604051908152f35b9091508281813d831161065b575b61064b8183610f51565b8101031261019a575190836105d0565b503d610641565b828101820151898201610104015288955086910161059b565b3461019a575f36600319011261019a576002546040516001600160a01b039091168152602090f35b3461019a57602036600319011261019a576004356001600160a01b038181169182900361019a57805f541690813314158061075f575b61073757828015610725576020817fd1a6a14209a385a964d036e404cb5cfb71f4000cdb03c9366292430787261be6926001600160601b0360a01b6002541617600255604051908152a1005b60405163d92e233d60e01b8152600490fd5b60649250600254166040519163061db9c160e01b835233600484015260248301526044820152fd5b5080600254163314156106d9565b3461019a575f36600319011261019a575f546040516001600160a01b039091168152602090f35b3461019a575f36600319011261019a576020600454604051908152f35b3461019a57602036600319011261019a576004355f526007602052608060405f2060ff8154169060018101549060ff600360028301549201541691604051936107f981610e9b565b84526020840152604083015261080e81610e9b565b6060820152f35b3461019a575f36600319011261019a576001546001600160a01b03808216330361087c575f54916001600160601b0360a01b9033828516175f55166001553391167f8be0079c531659141344cd1fd0a4f28419497f9722a3daafe3b4186f6b6457e05f80a3005b60405162461bcd60e51b815260206004820152601660248201527526bab9ba10313290383937b837b9b2b21037bbb732b960511b6044820152606490fd5b3461019a575f36600319011261019a576020600554604051908152f35b3461019a5760208060031936011261019a576006546004356001600160a01b03603083901c811633036103e457839060025416600554906004549461ffff63ffffffff90816040519361092985610efd565b5f85526040519463125fa26760e31b8987015251151560248601526024855261095185610f35565b6040519661095e88610f19565b8752878701998a52604087019280828a1c16845282606089019216825260808801936001855260a089019687526040519b8c99634d8e1c2f60e11b8b528b60048c01525160248b01525160448a01525116606488015251166084860152511660a48401525160c060c48401528051908160e4850152845f5b838110610a9d575050505f8391826101049183838284010152601f801991011681010301925af19182156103c0575f92610a6e575b50610a4d604051610a1b81610eb9565b60028152600385820184815260408301438152606084019160018352875f526007895260405f20945161033f81610e9b565b6002825f8051602061138f83398151915285604051438152a4604051908152f35b9091508281813d8311610a96575b610a868183610f51565b8101031261019a57519083610a0b565b503d610a7c565b82810182015189820161010401528895508691016109d6565b3461019a575f36600319011261019a576003546040516001600160a01b039091168152602090f35b3461019a57602036600319011261019a576004355f52600760205260405f206002810154908115610dd9576003810190815492600160ff8516610b2081610e9b565b03610dd95760648101809111610dc5574310610db357610b41600291610f73565b9260ff191617905560a0815191610b5783610e9b565b602081015192600180841b036002541660055460045463ffffffff60065460405192610b8284610efd565b5f84526040519363125fa26760e31b6020860152511515602485015260248452610bab84610f35565b60405194610bb886610f19565b8552602085015261ffff8160201c1660408501521660608301526001608083015285820152604051948591634d8e1c2f60e11b835260206004840152805160248401526020810151604484015261ffff604082015116606484015263ffffffff606082015116608484015263ffffffff60808201511660a4840152015160c060c48301528051908160e48401525f5b828110610d9a57505091815f602094826101049183838284010152601f801991011681010301925af19283156103c0575f93610d61575b50906020938392610cce604051610c9481610eb9565b610c9d83610e9b565b828152600388820185815260408301438152606084019160018352895f5260078c5260405f20945161033f81610e9b565b610cd781610e9b565b835f8051602061138f8339815191528760ff604051944386521693a47f50691d9f5497557ada88267ffcf8574bcd8b9e2ac9ffe14877b91bc8cc37119f610d5685835193610d2485610e9b565b610d2d85610e9b565b0151926040519182916004359543918460409194939260ff606083019616825260208201520152565b0390a3604051908152f35b939250906020843d602011610d92575b81610d7e60209383610f51565b8101031261019a5792519192906020610c7e565b3d9150610d71565b60208282018101516101048a8401015288945001610c47565b604051630709229560e11b8152600490fd5b634e487b7160e01b5f52601160045260245ffd5b604051637037cbb560e11b8152600490fd5b3461019a575f36600319011261019a57602063ffffffff60065416604051908152f35b3461019a57604036600319011261019a576024359067ffffffffffffffff9081831161019a573660238401121561019a57826004013591821161019a573660248360051b8501011161019a576002546001600160a01b031633819003610e8057610e7e8360248601600435610fd4565b005b63073e64fd60e21b8252336004830152602482015260449150fd5b60031115610ea557565b634e487b7160e01b5f52602160045260245ffd5b6080810190811067ffffffffffffffff821117610ed557604052565b634e487b7160e01b5f52604160045260245ffd5b67ffffffffffffffff8111610ed557604052565b6020810190811067ffffffffffffffff821117610ed557604052565b60c0810190811067ffffffffffffffff821117610ed557604052565b6060810190811067ffffffffffffffff821117610ed557604052565b90601f8019910116810190811067ffffffffffffffff821117610ed557604052565b90604051610f8081610eb9565b606060ff6003839582815416610f9581610e9b565b8552600181015460208601526002810154604086015201541691610fb883610e9b565b0152565b90610fc681610e9b565b60ff80198354169116179055565b92915f93805f5260209160078352604093610ff0855f20610f73565b606081016001815161100181610e9b565b61100a81610e9b565b036112845750805161101b81610e9b565b61102481610e9b565b61115b5760018060a01b0360065460301c1685820151841561114757908991813b15611143578291604483928b51948593849263dab39e1160e01b84526004840152893560248401525af1801561113957611121575b50505b8481519161108a83610e9b565b61109383610e9b565b0151921561110d57927f715d9a8dacd94777548ef2ada97df1fe50716b5df7359859bc31497d2481679461110b9798959382936110ed6007978a5193849335918460409194939260ff606083019616825260208201520152565b0390a28352522060035f918281558260018201558260028201550155565b565b634e487b7160e01b88526032600452602488fd5b61112a90610ee9565b61113557875f61107a565b8780fd5b88513d84823e3d90fd5b8280fd5b634e487b7160e01b8a52603260045260248afd5b6001815161116881610e9b565b61117181610e9b565b036111e35760018060a01b0360065460301c1685820151841561114757908991813b15611143578291604483928b5194859384926319237c9f60e11b84526004840152893560248401525af18015611139576111cf575b505061107d565b6111d890610ee9565b61113557875f6111c8565b600281516111f081610e9b565b6111f981610e9b565b0361107d5760018060a01b0360065460301c1685820151841561127057813b1561019a575f91604483928a51948593849263e1cb2fd360e01b84526004840152883560248401525af1801561126657611253575b5061107d565b61125e919850610ee9565b5f965f61124d565b87513d5f823e3d90fd5b634e487b7160e01b5f52603260045260245ffd5b9697509392915050845161129781610e9b565b6112a081610e9b565b6112ac575b5050505050565b807f8c5f51594c0be5483b0dfabed03dc2aaf93f3ee85af16e3b55cb19a09160535e60608560ff611333998760079951936112e685610e9b565b6112ef85610e9b565b01519051906112fd82610e9b565b61130682610e9b565b828b5194168452888401521688820152a25f52525f2060035f918281558260018201558260028201550155565b5f808080806112a5565b5f546001600160a01b0316330361135057565b60405162461bcd60e51b815260206004820152601660248201527527b7363c9031b0b63630b1363290313c9037bbb732b960511b6044820152606490fdfee3efcf2826e3ea9c9b024e3454102bce9681815e1f47b710119d2150a02d03a6a264697066735822122028d0803060bff3086f60921c1341efd1d26f9e320172e65816fec70cb11b955064736f6c63430008180033","linkReferences":{}},"methodIdentifiers":{"COORDINATOR()":"3b2bcbf1","acceptOwnership()":"79ba5097","callbackGasLimit()":"24f74697","gameCore()":"e2cfe2ef","owner()":"8da5cb5b","rawFulfillRandomWords(uint256,uint256[])":"1fe543e3","requestConfirmations()":"b0fb162f","requestNPCRefresh(uint256)":"a938ec48","requestRespawn(uint256)":"cbaa65f3","requestSpawn(uint256)":"440e31f2","requests(uint256)":"81d12c58","retryRequest(uint256)":"27263340","s_keyHash()":"45bb327b","s_subscriptionId()":"8ac00021","s_vrfCoordinator()":"9eccacf6","setCoordinator(address)":"8ea98117","setGameCore(address)":"cadbcc6d","transferOwnership(address)":"f2fde38b"},"id":85}