{"abi":[{"type":"constructor","inputs":[],"stateMutability":"nonpayable"},{"type":"function","name":"balanceOf","inputs":[{"name":"account","type":"address","internalType":"address"},{"name":"id","type":"uint256","internalType":"uint256"}],"outputs":[{"name":"","type":"uint256","internalType":"uint256"}],"stateMutability":"view"},{"type":"function","name":"balanceOfBatch","inputs":[{"name":"accounts","type":"address[]","internalType":"address[]"},{"name":"ids","type":"uint256[]","internalType":"uint256[]"}],"outputs":[{"name":"","type":"uint256[]","internalType":"uint256[]"}],"stateMutability":"view"},{"type":"function","name":"burn","inputs":[{"name":"from","type":"address","internalType":"address"},{"name":"id","type":"uint256","internalType":"uint256"},{"name":"amount","type":"uint256","internalType":"uint256"}],"outputs":[],"stateMutability":"nonpayable"},{"type":"function","name":"gameCore","inputs":[],"outputs":[{"name":"","type":"address","internalType":"address"}],"stateMutability":"view"},{"type":"function","name":"isApprovedForAll","inputs":[{"name":"account","type":"address","internalType":"address"},{"name":"operator","type":"address","internalType":"address"}],"outputs":[{"name":"","type":"bool","internalType":"bool"}],"stateMutability":"view"},{"type":"function","name":"mint","inputs":[{"name":"to","type":"address","internalType":"address"},{"name":"id","type":"uint256","internalType":"uint256"},{"name":"amount","type":"uint256","internalType":"uint256"},{"name":"data","type":"bytes","internalType":"bytes"}],"outputs":[],"stateMutability":"nonpayable"},{"type":"function","name":"owner","inputs":[],"outputs":[{"name":"","type":"address","internalType":"address"}],"stateMutability":"view"},{"type":"function","name":"renounceOwnership","inputs":[],"outputs":[],"stateMutability":"nonpayable"},{"type":"function","name":"safeBatchTransferFrom","inputs":[{"name":"from","type":"address","internalType":"address"},{"name":"to","type":"address","internalType":"address"},{"name":"ids","type":"uint256[]","internalType":"uint256[]"},{"name":"values","type":"uint256[]","internalType":"uint256[]"},{"name":"data","type":"bytes","internalType":"bytes"}],"outputs":[],"stateMutability":"nonpayable"},{"type":"function","name":"safeTransferFrom","inputs":[{"name":"from","type":"address","internalType":"address"},{"name":"to","type":"address","internalType":"address"},{"name":"id","type":"uint256","internalType":"uint256"},{"name":"value","type":"uint256","internalType":"uint256"},{"name":"data","type":"bytes","internalType":"bytes"}],"outputs":[],"stateMutability":"nonpayable"},{"type":"function","name":"setApprovalForAll","inputs":[{"name":"operator","type":"address","internalType":"address"},{"name":"approved","type":"bool","internalType":"bool"}],"outputs":[],"stateMutability":"nonpayable"},{"type":"function","name":"setGameCore","inputs":[{"name":"_core","type":"address","internalType":"address"}],"outputs":[],"stateMutability":"nonpayable"},{"type":"function","name":"supportsInterface","inputs":[{"name":"interfaceId","type":"bytes4","internalType":"bytes4"}],"outputs":[{"name":"","type":"bool","internalType":"bool"}],"stateMutability":"view"},{"type":"function","name":"transferOwnership","inputs":[{"name":"newOwner","type":"address","internalType":"address"}],"outputs":[],"stateMutability":"nonpayable"},{"type":"function","name":"uri","inputs":[{"name":"","type":"uint256","internalType":"uint256"}],"outputs":[{"name":"","type":"string","internalType":"string"}],"stateMutability":"view"},{"type":"event","name":"ApprovalForAll","inputs":[{"name":"account","type":"address","indexed":true,"internalType":"address"},{"name":"operator","type":"address","indexed":true,"internalType":"address"},{"name":"approved","type":"bool","indexed":false,"internalType":"bool"}],"anonymous":false},{"type":"event","name":"GameCoreSet","inputs":[{"name":"gameCore","type":"address","indexed":true,"internalType":"address"}],"anonymous":false},{"type":"event","name":"OwnershipTransferred","inputs":[{"name":"previousOwner","type":"address","indexed":true,"internalType":"address"},{"name":"newOwner","type":"address","indexed":true,"internalType":"address"}],"anonymous":false},{"type":"event","name":"TransferBatch","inputs":[{"name":"operator","type":"address","indexed":true,"internalType":"address"},{"name":"from","type":"address","indexed":true,"internalType":"address"},{"name":"to","type":"address","indexed":true,"internalType":"address"},{"name":"ids","type":"uint256[]","indexed":false,"internalType":"uint256[]"},{"name":"values","type":"uint256[]","indexed":false,"internalType":"uint256[]"}],"anonymous":false},{"type":"event","name":"TransferSingle","inputs":[{"name":"operator","type":"address","indexed":true,"internalType":"address"},{"name":"from","type":"address","indexed":true,"internalType":"address"},{"name":"to","type":"address","indexed":true,"internalType":"address"},{"name":"id","type":"uint256","indexed":false,"internalType":"uint256"},{"name":"value","type":"uint256","indexed":false,"internalType":"uint256"}],"anonymous":false},{"type":"event","name":"URI","inputs":[{"name":"value","type":"string","indexed":false,"internalType":"string"},{"name":"id","type":"uint256","indexed":true,"internalType":"uint256"}],"anonymous":false},{"type":"error","name":"ERC1155InsufficientBalance","inputs":[{"name":"sender","type":"address","internalType":"address"},{"name":"balance","type":"uint256","internalType":"uint256"},{"name":"needed","type":"uint256","internalType":"uint256"},{"name":"tokenId","type":"uint256","internalType":"uint256"}]},{"type":"error","name":"ERC1155InvalidApprover","inputs":[{"name":"approver","type":"address","internalType":"address"}]},{"type":"error","name":"ERC1155InvalidArrayLength","inputs":[{"name":"idsLength","type":"uint256","internalType":"uint256"},{"name":"valuesLength","type":"uint256","internalType":"uint256"}]},{"type":"error","name":"ERC1155InvalidOperator","inputs":[{"name":"operator","type":"address","internalType":"address"}]},{"type":"error","name":"ERC1155InvalidReceiver","inputs":[{"name":"receiver","type":"address","internalType":"address"}]},{"type":"error","name":"ERC1155InvalidSender","inputs":[{"name":"sender","type":"address","internalType":"address"}]},{"type":"error","name":"ERC1155MissingApprovalForAll","inputs":[{"name":"operator","type":"address","internalType":"address"},{"name":"owner","type":"address","internalType":"address"}]},{"type":"error","name":"OnlyGameCore","inputs":[]},{"type":"error","name":"OwnableInvalidOwner","inputs":[{"name":"owner","type":"address","internalType":"address"}]},{"type":"error","name":"OwnableUnauthorizedAccount","inputs":[{"name":"account","type":"address","internalType":"address"}]},{"type":"error","name":"SpatialHookFromEntityNotRegistered","inputs":[]},{"type":"error","name":"SpatialHookPositionsMustMatch","inputs":[]},{"type":"error","name":"SpatialHookToEntityNotRegistered","inputs":[]}],"bytecode":{"object":"0x608034620001445760208101906001600160401b0382118183101762000130575f9160405252600254600190600181811c9116801562000125575b60208210146200011157601f8111620000c7575b50505f6002553315620000af5760038054336001600160a01b03198216811790925560405191906001600160a01b03167f8be0079c531659141344cd1fd0a4f28419497f9722a3daafe3b4186f6b6457e05f80a36118bd9081620001498239f35b604051631e4fbdf760e01b81525f6004820152602490fd5b60025f52601f0160051c7f405787fa12a823e0f2b7631cc41b3ba8828b3321ca811111fa75cd3aa3bb5ace908101905b8181106200010657506200004e565b5f81558201620000f7565b634e487b7160e01b5f52602260045260245ffd5b90607f16906200003a565b634e487b7160e01b5f52604160045260245ffd5b5f80fdfe60806040526004361015610011575f80fd5b5f3560e01c8062fdd58e1461010357806301ffc9a7146100fe5780630e89341c146100f95780632eb2c2d6146100f45780634e1273f4146100ef578063715018a6146100ea578063731133e9146100e55780638da5cb5b146100e0578063a22cb465146100db578063cadbcc6d146100d6578063e2cfe2ef146100d1578063e985e9c5146100cc578063f242432a146100c7578063f2fde38b146100c25763f5298aca146100bd575f80fd5b610c1c565b610b90565b610adc565b610a80565b610a58565b6109f2565b610915565b6108e3565b61082d565b6107d2565b610717565b61049e565b610266565b6101a6565b61014c565b600435906001600160a01b038216820361011e57565b5f80fd5b602435906001600160a01b038216820361011e57565b35906001600160a01b038216820361011e57565b3461011e57604036600319011261011e57602061018b61016a610108565b6024355f525f835260405f209060018060a01b03165f5260205260405f2090565b54604051908152f35b6001600160e01b031981160361011e57565b3461011e57602036600319011261011e5760206004356101c581610194565b63ffffffff60e01b16636cdb3d1360e11b8114908115610203575b81156101f2575b506040519015158152f35b6301ffc9a760e01b1490505f6101e7565b6303a24d0760e21b811491506101e0565b91908251928382525f5b84811061023e575050825f602080949584010152601f8019910116010190565b60208183018101518483018201520161021e565b906020610263928181520190610214565b90565b3461011e5760208060031936011261011e57604051905f906002546001918160011c9260018316928315610363575b60208510841461034f57848752602087019390811561033057506001146102d7575b6102d3866102c7818803826103a2565b60405191829182610252565b0390f35b60025f90815294509192917f405787fa12a823e0f2b7631cc41b3ba8828b3321ca811111fa75cd3aa3bb5ace5b83861061031f57505050910190506102c7826102d35f6102b7565b805485870152948201948101610304565b60ff1916845250505090151560051b0190506102c7826102d35f6102b7565b634e487b7160e01b5f52602260045260245ffd5b93607f1693610295565b634e487b7160e01b5f52604160045260245ffd5b6020810190811067ffffffffffffffff82111761039d57604052565b61036d565b90601f8019910116810190811067ffffffffffffffff82111761039d57604052565b67ffffffffffffffff811161039d5760051b60200190565b9080601f8301121561011e5760209082356103f6816103c4565b9361040460405195866103a2565b81855260208086019260051b82010192831161011e57602001905b82821061042d575050505090565b8135815290830190830161041f565b67ffffffffffffffff811161039d57601f01601f191660200190565b81601f8201121561011e5780359061046f8261043c565b9261047d60405194856103a2565b8284526020838301011161011e57815f926020809301838601378301015290565b3461011e5760a036600319011261011e576104b7610108565b6104bf610122565b906044359167ffffffffffffffff9081841161011e576104e4600494369086016103dc565b9060643583811161011e576104fc90369087016103dc565b9260843590811161011e576105149036908701610458565b9361051f8133610d7b565b6001600160a01b03828116156106bc578116156106a65785546105589061054c906001600160a01b031681565b6001600160a01b031690565b604051630fa51d1f60e31b8082526001600160a01b0384168983019081529092916060918290829081906020010381865afa93841561066b578a905f80935f97610680575b5015610670576040519081526001600160a01b0388169181019182529383918591908290819060200103915afa92831561066b575f905f935f95610636575b5050156106255714918261061b575b50501561060b576106099550610603848484846116ea565b3361150e565b005b604051624b2ad760e91b81528690fd5b1490505f806105eb565b604051631afe2c3560e01b81528a90fd5b915091935061065a9250803d10610664575b61065281836103a2565b810190611258565b9290915f806105dc565b503d610648565b61127c565b50604051632700756560e11b8152fd5b9196505061069c919250833d85116106645761065281836103a2565b959092915f61059d565b604051626a0d4560e21b81525f81880152602490fd5b604051632bfa23e760e11b81525f81890152602490fd5b9081518082526020808093019301915f5b8281106106f2575050505090565b8351855293810193928101926001016106e4565b9060206102639281815201906106d3565b3461011e57604036600319011261011e5760043567ffffffffffffffff80821161011e573660238301121561011e578160040135610754816103c4565b9261076260405194856103a2565b8184526020916024602086019160051b8301019136831161011e57602401905b8282106107bb578560243586811161011e576102d3916107a96107af9236906004016103dc565b90610cbe565b60405191829182610706565b8380916107c784610138565b815201910190610782565b3461011e575f36600319011261011e576107ea610de9565b600380546001600160a01b031981169091555f906001600160a01b03167f8be0079c531659141344cd1fd0a4f28419497f9722a3daafe3b4186f6b6457e08280a3005b3461011e57608036600319011261011e57610846610108565b60643567ffffffffffffffff811161011e57610866903690600401610458565b6004546001600160a01b0390811633036108d1578216156108b957610609916108b36044356024359160405192600184526020840152604083019160018352606084015260808301604052565b91610e15565b604051632bfa23e760e11b81525f6004820152602490fd5b604051637461dafb60e01b8152600490fd5b3461011e575f36600319011261011e576003546040516001600160a01b039091168152602090f35b8015150361011e57565b3461011e57604036600319011261011e5761092e610108565b60243561093a8161090b565b33156109da576001600160a01b0382169182156109c357335f90815260016020526040902061099191839161098091905b9060018060a01b03165f5260205260405f2090565b9060ff801983541691151516179055565b604051901515815233907f17307eab39ab6107e8899845ad3d59bd9653f200f220920489ca2b5937696c3190602090a3005b60405162ced3e160e81b81525f6004820152602490fd5b604051631f18c42760e11b81525f6004820152602490fd5b3461011e57602036600319011261011e57610a0b610108565b610a13610de9565b600480546001600160a01b0319166001600160a01b039290921691821790557f962bae5aed24b76211f2b2cba9c2133a4ee5ae02913cf1af64f7386c1c4b3dd75f80a2005b3461011e575f36600319011261011e576004546040516001600160a01b039091168152602090f35b3461011e57604036600319011261011e57602060ff610ad0610aa0610108565b610aa8610122565b6001600160a01b039182165f9081526001865260408082209290931681526020919091522090565b54166040519015158152f35b3461011e5760a036600319011261011e57610af5610108565b610afd610122565b60843567ffffffffffffffff811161011e57610b1d903690600401610458565b90610b288333610d7b565b6001600160a01b03818116156108b957831615610b795761060992610b716064356044359160405192600184526020840152604083019160018352606084015260808301604052565b929091610f59565b604051626a0d4560e21b81525f6004820152602490fd5b3461011e57602036600319011261011e57610ba9610108565b610bb1610de9565b6001600160a01b03908116908115610c0457600354826bffffffffffffffffffffffff60a01b821617600355167f8be0079c531659141344cd1fd0a4f28419497f9722a3daafe3b4186f6b6457e05f80a3005b604051631e4fbdf760e01b81525f6004820152602490fd5b3461011e57606036600319011261011e57610c35610108565b6004546001600160a01b0390811633036108d157811615610b795761060990610c826044356024359160405192600184526020840152604083019160018352606084015260808301604052565b915f604051610c9081610381565b526110f1565b8051821015610caa5760209160051b010190565b634e487b7160e01b5f52603260045260245ffd5b91909180518351808203610d59575050805190610cf3610cdd836103c4565b92610ceb60405194856103a2565b8084526103c4565b60209190601f190136848401375f5b8151811015610d5157600581901b8281018401519087018401515f908152602081815260408083206001600160a01b039094168352929052205460019190610d4a8287610c96565b5201610d02565b509193505050565b604051635b05999160e01b815260048101919091526024810191909152604490fd5b6001600160a01b03818116921690818314159081610dbb575b50610d9d575050565b604492506040519163711bec9160e11b835260048301526024820152fd5b5f8381526001602090815260408083206001600160a01b0390941683529290522060ff91505416155f610d94565b6003546001600160a01b03163303610dfd57565b60405163118cdaa760e01b8152336004820152602490fd5b908051835190818103610d595750505f5b8151811015610e8a57600581901b82810160209081015191860101516001929185906001600160a01b038216610e60575b50505001610e26565b610e809161096b610e78925f525f60205260405f2090565b918254611545565b90555f8481610e57565b50929160018451145f14610f11576020848101518282015160408051928352928201526001600160a01b038416915f9133917fc3d58168c5ae7397731d063d5bbf3d657854427343f4c083240f7aacaa2d0f6291a45b6001600160a01b038216610ef5575b50505050565b602080610f08950151910151913361132e565b5f808080610eef565b6040516001600160a01b038316905f9033907f4a39dc06d4c0dbc64b70af90fd698a233a518aa5d07e595d983b8c0526c8f7fb9080610f51878b83611566565b0390a4610ee0565b919392906001600160a01b038084161515806110e6575b610fac575b610f81838784876116ea565b8116610f8f575b5050505050565b602080610fa29601519201519233611427565b5f80808080610f88565b60048054610fc49061054c906001600160a01b031681565b604051630fa51d1f60e31b8082526001600160a01b0388168483019081529092916060918290829081906020010381865afa93841561066b575f80925f966110c2575b50156110b1576040519081526001600160a01b038816868201908152909383918591908290819060200103915afa92831561066b575f905f935f9561108c575b50501561107b57149182611071575b5050156110635750610f75565b604051624b2ad760e91b8152fd5b1490505f80611056565b604051631afe2c3560e01b81528590fd5b91509193506110a79250803d106106645761065281836103a2565b9290915f80611047565b604051632700756560e11b81528690fd5b919550506110dd9150823d84116106645761065281836103a2565b9490915f611007565b508082161515610f70565b9291906001600160a01b038416151580611251575b611117575b611115929361158b565b565b600480549094906111329061054c906001600160a01b031681565b604051630fa51d1f60e31b8082526001600160a01b0384168883019081529092916060918290829081906020010381865afa93841561066b57895f80935f9761122b575b501561121c5761119994849260405180978194829383528201905f602083019252565b03915afa92831561066b575f905f935f956111f7575b5050156111e6571491826111dc575b5050156111cc57935061110b565b604051624b2ad760e91b81528590fd5b1490505f806111be565b604051631afe2c3560e01b81528990fd5b91509193506112129250803d106106645761065281836103a2565b9290915f806111af565b604051632700756560e11b8152fd5b91965050611247919250833d85116106645761065281836103a2565b959092915f611176565b505f611106565b9081606091031261011e57805161126e8161090b565b916040602083015192015190565b6040513d5f823e3d90fd5b9081602091031261011e575161026381610194565b909260a0926102639594600180861b031683525f6020840152604083015260608201528160808201520190610214565b919261026395949160a094600180871b038092168552166020840152604083015260608201528160808201520190610214565b3d15611329573d906113108261043c565b9161131e60405193846103a2565b82523d5f602084013e565b606090565b9293919093843b611340575050505050565b602091611363604051948593849363f23a6e6160e01b988986526004860161129c565b03815f6001600160a01b0388165af15f91816113f6575b506113b957826113886112ff565b80519190826113b257604051632bfa23e760e11b81526001600160a01b0383166004820152602490fd5b6020915001fd5b6001600160e01b031916036113d357505f80808080610f88565b604051632bfa23e760e11b81526001600160a01b03919091166004820152602490fd5b61141991925060203d602011611420575b61141181836103a2565b810190611287565b905f61137a565b503d611407565b939290949194853b61143c575b505050505050565b61145f602093604051958694859463f23a6e6160e01b998a8752600487016112cc565b03815f6001600160a01b0388165af15f918161149f575b5061148457826113886112ff565b6001600160e01b031916036113d357505f8080808080611434565b6114b991925060203d6020116114205761141181836103a2565b905f611476565b939061026395936114f2916115009460018060a01b03809216885216602087015260a0604087015260a08601906106d3565b9084820360608601526106d3565b916080818403910152610214565b939290949194853b61152257505050505050565b61145f602093604051958694859463bc197c8160e01b998a8752600487016114c0565b9190820180921161155257565b634e487b7160e01b5f52601160045260245ffd5b909161157d610263936040845260408401906106d3565b9160208184039101526106d3565b9291908051825190818103610d595750505f5b815181101561164b57600581901b82810160209081015191850101516001600160a01b0387166115d3575b505060010161159e565b6115e88761096b845f525f60205260405f2090565b54818110611614578761096b600195949361160c9303935f525f60205260405f2090565b55905f6115c9565b6040516303dee4c560e01b81526001600160a01b038916600482015260248101919091526044810182905260648101839052608490fd5b50905f929391600181511484146116ab576020908101519181015160408051938452918301526001600160a01b039092169133917fc3d58168c5ae7397731d063d5bbf3d657854427343f4c083240f7aacaa2d0f6291819081015b0390a4565b6040516001600160a01b039093169233927f4a39dc06d4c0dbc64b70af90fd698a233a518aa5d07e595d983b8c0526c8f7fb9282916116a69183611566565b9392918051835190818103610d595750505f5b81518110156117e257600581901b82810160209081015191860101516001600160a01b0392918590898516611762575b6001948216611740575b505050016116fd565b6117589161096b610e78925f525f60205260405f2090565b90555f8481611737565b919293905061177c8961096b845f525f60205260405f2090565b548381106117ab57918691846001969594036117a38c61096b855f525f60205260405f2090565b55945061172d565b6040516303dee4c560e01b81526001600160a01b038b16600482015260248101919091526044810184905260648101839052608490fd5b508051939493919291600103611844576020908101519181015160408051938452918301526001600160a01b03928316939092169133917fc3d58168c5ae7397731d063d5bbf3d657854427343f4c083240f7aacaa2d0f6291819081016116a6565b6040516001600160a01b03938416949093169233927f4a39dc06d4c0dbc64b70af90fd698a233a518aa5d07e595d983b8c0526c8f7fb9282916116a6918361156656fea26469706673582212205de6d166846eb0d94e5afa6168eed10186ec39447a71c2da64121ee63078fe6964736f6c63430008180033","linkReferences":{}},"methodIdentifiers":{"balanceOf(address,uint256)":"00fdd58e","balanceOfBatch(address[],uint256[])":"4e1273f4","burn(address,uint256,uint256)":"f5298aca","gameCore()":"e2cfe2ef","isApprovedForAll(address,address)":"e985e9c5","mint(address,uint256,uint256,bytes)":"731133e9","owner()":"8da5cb5b","renounceOwnership()":"715018a6","safeBatchTransferFrom(address,address,uint256[],uint256[],bytes)":"2eb2c2d6","safeTransferFrom(address,address,uint256,uint256,bytes)":"f242432a","setApprovalForAll(address,bool)":"a22cb465","setGameCore(address)":"cadbcc6d","supportsInterface(bytes4)":"01ffc9a7","transferOwnership(address)":"f2fde38b","uri(uint256)":"0e89341c"},"id":86}