{"abi":[{"type":"constructor","inputs":[{"name":"_walletImplementation","type":"address","internalType":"address"}],"stateMutability":"nonpayable"},{"type":"function","name":"approve","inputs":[{"name":"to","type":"address","internalType":"address"},{"name":"tokenId","type":"uint256","internalType":"uint256"}],"outputs":[],"stateMutability":"nonpayable"},{"type":"function","name":"balanceOf","inputs":[{"name":"owner","type":"address","internalType":"address"}],"outputs":[{"name":"","type":"uint256","internalType":"uint256"}],"stateMutability":"view"},{"type":"function","name":"clearController","inputs":[{"name":"roleId","type":"uint256","internalType":"uint256"}],"outputs":[],"stateMutability":"nonpayable"},{"type":"function","name":"controllerOf","inputs":[{"name":"roleId","type":"uint256","internalType":"uint256"}],"outputs":[{"name":"","type":"address","internalType":"address"}],"stateMutability":"view"},{"type":"function","name":"gameCore","inputs":[],"outputs":[{"name":"","type":"address","internalType":"address"}],"stateMutability":"view"},{"type":"function","name":"getApproved","inputs":[{"name":"tokenId","type":"uint256","internalType":"uint256"}],"outputs":[{"name":"","type":"address","internalType":"address"}],"stateMutability":"view"},{"type":"function","name":"isApprovedForAll","inputs":[{"name":"owner","type":"address","internalType":"address"},{"name":"operator","type":"address","internalType":"address"}],"outputs":[{"name":"","type":"bool","internalType":"bool"}],"stateMutability":"view"},{"type":"function","name":"mintTo","inputs":[{"name":"to","type":"address","internalType":"address"}],"outputs":[{"name":"","type":"uint256","internalType":"uint256"}],"stateMutability":"nonpayable"},{"type":"function","name":"name","inputs":[],"outputs":[{"name":"","type":"string","internalType":"string"}],"stateMutability":"view"},{"type":"function","name":"owner","inputs":[],"outputs":[{"name":"","type":"address","internalType":"address"}],"stateMutability":"view"},{"type":"function","name":"ownerOf","inputs":[{"name":"tokenId","type":"uint256","internalType":"uint256"}],"outputs":[{"name":"","type":"address","internalType":"address"}],"stateMutability":"view"},{"type":"function","name":"renounceOwnership","inputs":[],"outputs":[],"stateMutability":"nonpayable"},{"type":"function","name":"safeTransferFrom","inputs":[{"name":"from","type":"address","internalType":"address"},{"name":"to","type":"address","internalType":"address"},{"name":"tokenId","type":"uint256","internalType":"uint256"}],"outputs":[],"stateMutability":"nonpayable"},{"type":"function","name":"safeTransferFrom","inputs":[{"name":"from","type":"address","internalType":"address"},{"name":"to","type":"address","internalType":"address"},{"name":"tokenId","type":"uint256","internalType":"uint256"},{"name":"data","type":"bytes","internalType":"bytes"}],"outputs":[],"stateMutability":"nonpayable"},{"type":"function","name":"setApprovalForAll","inputs":[{"name":"operator","type":"address","internalType":"address"},{"name":"approved","type":"bool","internalType":"bool"}],"outputs":[],"stateMutability":"nonpayable"},{"type":"function","name":"setController","inputs":[{"name":"roleId","type":"uint256","internalType":"uint256"},{"name":"controller","type":"address","internalType":"address"}],"outputs":[],"stateMutability":"nonpayable"},{"type":"function","name":"setGameCore","inputs":[{"name":"_gameCore","type":"address","internalType":"address"}],"outputs":[],"stateMutability":"nonpayable"},{"type":"function","name":"supportsInterface","inputs":[{"name":"interfaceId","type":"bytes4","internalType":"bytes4"}],"outputs":[{"name":"","type":"bool","internalType":"bool"}],"stateMutability":"view"},{"type":"function","name":"symbol","inputs":[],"outputs":[{"name":"","type":"string","internalType":"string"}],"stateMutability":"view"},{"type":"function","name":"tokenOfOwnerByIndex","inputs":[{"name":"owner","type":"address","internalType":"address"},{"name":"index","type":"uint256","internalType":"uint256"}],"outputs":[{"name":"","type":"uint256","internalType":"uint256"}],"stateMutability":"view"},{"type":"function","name":"tokenURI","inputs":[{"name":"tokenId","type":"uint256","internalType":"uint256"}],"outputs":[{"name":"","type":"string","internalType":"string"}],"stateMutability":"view"},{"type":"function","name":"totalMinted","inputs":[],"outputs":[{"name":"","type":"uint256","internalType":"uint256"}],"stateMutability":"view"},{"type":"function","name":"transferFrom","inputs":[{"name":"from","type":"address","internalType":"address"},{"name":"to","type":"address","internalType":"address"},{"name":"tokenId","type":"uint256","internalType":"uint256"}],"outputs":[],"stateMutability":"nonpayable"},{"type":"function","name":"transferOwnership","inputs":[{"name":"newOwner","type":"address","internalType":"address"}],"outputs":[],"stateMutability":"nonpayable"},{"type":"function","name":"walletImplementation","inputs":[],"outputs":[{"name":"","type":"address","internalType":"address"}],"stateMutability":"view"},{"type":"function","name":"wallets","inputs":[{"name":"","type":"uint256","internalType":"uint256"}],"outputs":[{"name":"","type":"address","internalType":"address"}],"stateMutability":"view"},{"type":"event","name":"Approval","inputs":[{"name":"owner","type":"address","indexed":true,"internalType":"address"},{"name":"approved","type":"address","indexed":true,"internalType":"address"},{"name":"tokenId","type":"uint256","indexed":true,"internalType":"uint256"}],"anonymous":false},{"type":"event","name":"ApprovalForAll","inputs":[{"name":"owner","type":"address","indexed":true,"internalType":"address"},{"name":"operator","type":"address","indexed":true,"internalType":"address"},{"name":"approved","type":"bool","indexed":false,"internalType":"bool"}],"anonymous":false},{"type":"event","name":"ControllerCleared","inputs":[{"name":"roleId","type":"uint256","indexed":true,"internalType":"uint256"}],"anonymous":false},{"type":"event","name":"ControllerSet","inputs":[{"name":"roleId","type":"uint256","indexed":true,"internalType":"uint256"},{"name":"controller","type":"address","indexed":true,"internalType":"address"}],"anonymous":false},{"type":"event","name":"OwnershipTransferred","inputs":[{"name":"previousOwner","type":"address","indexed":true,"internalType":"address"},{"name":"newOwner","type":"address","indexed":true,"internalType":"address"}],"anonymous":false},{"type":"event","name":"Transfer","inputs":[{"name":"from","type":"address","indexed":true,"internalType":"address"},{"name":"to","type":"address","indexed":true,"internalType":"address"},{"name":"tokenId","type":"uint256","indexed":true,"internalType":"uint256"}],"anonymous":false},{"type":"event","name":"WalletCreated","inputs":[{"name":"roleId","type":"uint256","indexed":true,"internalType":"uint256"},{"name":"wallet","type":"address","indexed":true,"internalType":"address"}],"anonymous":false},{"type":"error","name":"ERC721IncorrectOwner","inputs":[{"name":"sender","type":"address","internalType":"address"},{"name":"tokenId","type":"uint256","internalType":"uint256"},{"name":"owner","type":"address","internalType":"address"}]},{"type":"error","name":"ERC721InsufficientApproval","inputs":[{"name":"operator","type":"address","internalType":"address"},{"name":"tokenId","type":"uint256","internalType":"uint256"}]},{"type":"error","name":"ERC721InvalidApprover","inputs":[{"name":"approver","type":"address","internalType":"address"}]},{"type":"error","name":"ERC721InvalidOperator","inputs":[{"name":"operator","type":"address","internalType":"address"}]},{"type":"error","name":"ERC721InvalidOwner","inputs":[{"name":"owner","type":"address","internalType":"address"}]},{"type":"error","name":"ERC721InvalidReceiver","inputs":[{"name":"receiver","type":"address","internalType":"address"}]},{"type":"error","name":"ERC721InvalidSender","inputs":[{"name":"sender","type":"address","internalType":"address"}]},{"type":"error","name":"ERC721NonexistentToken","inputs":[{"name":"tokenId","type":"uint256","internalType":"uint256"}]},{"type":"error","name":"FailedDeployment","inputs":[]},{"type":"error","name":"InsufficientBalance","inputs":[{"name":"balance","type":"uint256","internalType":"uint256"},{"name":"needed","type":"uint256","internalType":"uint256"}]},{"type":"error","name":"NotOwner","inputs":[]},{"type":"error","name":"NotTheOwner","inputs":[]},{"type":"error","name":"OnlyGameCore","inputs":[]},{"type":"error","name":"OwnableInvalidOwner","inputs":[{"name":"owner","type":"address","internalType":"address"}]},{"type":"error","name":"OwnableUnauthorizedAccount","inputs":[{"name":"account","type":"address","internalType":"address"}]}],"bytecode":{"object":"0x6080346200037e57601f1990601f906001600160401b039062001917388190038481018616830184811184821017620002a0578392829160405283396020928391810103126200037e57516001600160a01b039384821693918490036200037e576200006a62000382565b92600c84526b4167656e74626f78526f6c6560a01b818501526200008d62000382565b96600588526441524f4c4560d81b828901528451848111620002a0575f546001968782811c9216801562000373575b858310146200028157818684931162000320575b508490868311600114620002c0575f92620002b4575b50505f19600383901b1c191690861b175f555b8751938411620002a05784548581811c9116801562000295575b83821014620002815783811162000239575b5081928411600114620001d557505081929394955f92620001c9575b50505f19600383901b1c191690821b1790555b3315620001b15760068054336001600160a01b03198083168217909355604051949091167f8be0079c531659141344cd1fd0a4f28419497f9722a3daafe3b4186f6b6457e05f80a360095416176009556115749081620003a38239f35b604051631e4fbdf760e01b81525f6004820152602490fd5b015190505f8062000141565b5f858152828120918516989193925b8982106200022157505083859697981062000208575b505050811b01905562000154565b01515f1960f88460031b161c191690555f8080620001fa565b808785968294968601518155019501930190620001e4565b855f52825f208480870160051c82019285881062000277575b0160051c019086905b8281106200026b57505062000125565b5f81550186906200025b565b9250819262000252565b634e487b7160e01b5f52602260045260245ffd5b90607f169062000113565b634e487b7160e01b5f52604160045260245ffd5b015190505f80620000e6565b9084899416915f8052865f20925f5b88828210620003095750508411620002f0575b505050811b015f55620000f9565b01515f1960f88460031b161c191690555f8080620002e2565b8385015186558c97909501949384019301620002cf565b9091505f8052845f208680850160051c82019287861062000369575b918a91869594930160051c01915b8281106200035a575050620000d0565b5f81558594508a91016200034a565b925081926200033c565b91607f1691620000bc565b5f80fd5b60408051919082016001600160401b03811183821017620002a05760405256fe60806040818152600480361015610014575f80fd5b5f925f3560e01c90816301ffc9a714610f815750806306fdde0314610e84578063081812fc14610e4b578063095ea7b314610d6f57806323b872dd14610d585780632f745c5914610cf65780633e5779ee14610c7757806342842e0e14610c4d5780635dd8f6aa14610c1d5780636352211e14610bed57806370a0823114610bc1578063715018a614610b66578063755edd17146108125780637ad71f72146107e05780638117abc1146107b75780638da5cb5b1461078e57806395d89b4114610684578063a20a60c614610606578063a22cb46514610548578063a2309ff814610529578063b88d4fde146104a0578063c87b56dd14610289578063cadbcc6d14610246578063e2cfe2ef1461021d578063e985e9c5146101cb5763f2fde38b1461013e575f80fd5b346101c75760203660031901126101c757610157611031565b90610160611512565b6001600160a01b039182169283156101b1575050600654826001600160601b0360a01b821617600655167f8be0079c531659141344cd1fd0a4f28419497f9722a3daafe3b4186f6b6457e05f80a380f35b51631e4fbdf760e01b8152908101849052602490fd5b8280fd5b5050346102195780600319360112610219576020916101e8611031565b826101f1611047565b9260018060a01b038093168152600586522091165f52825260ff815f20541690519015158152f35b5080fd5b50503461021957816003193601126102195760085490516001600160a01b039091168152602090f35b833461028657602036600319011261028657610260611031565b610268611512565b60018060a01b03166001600160601b0360a01b600854161760085580f35b80fd5b50346101c7576020908160031936011261049c5781929381356102ab816114d8565b508551926102b884611092565b82845282156104805781829184937a184f03e93ff9f4daa797ed6e38ed64bf6a1f0100000000000000009081811015610473575b5050866d04ee2d6d415b85acef810000000080851015610465575b5050662386f26fc1000080841015610456575b506305f5e10080841015610447575b5061271080841015610439575b50506064821015610429575b600a8092101561041f575b60219088936001928161037b600186940161037361036a826110e4565b9951998a6110c2565b8089526110e4565b878b019890601f1901368a3750860101905b6103ea575b50505050926103c9926103d5926103e695885195836103ba8895518092888089019101610feb565b84019151809386840190610feb565b010380845201826110c2565b925b5192828493845283019061100c565b0390f35b5f19019083906f181899199a1a9b1b9c1cb0b131b232b360811b8282061a83530491821561041a5791908261038d565b610392565b916001019161034d565b9190606460029104910191610342565b930192909104905f80610336565b6008919493049201925f610329565b6010919493049201925f61031a565b94019390920491865f610307565b8a95500492505f806102ec565b50505050506103e6825161049381611092565b5f8152926103d7565b8380fd5b5090346101c75760803660031901126101c7576104bb611031565b6104c3611047565b846064359467ffffffffffffffff8611610219573660238701121561021957850135946104fb6104f2876110e4565b955195866110c2565b858552366024878301011161021957856105269660246020930183880137850101526044359161138a565b80f35b5050346102195781600319360112610219576020906007549051908152f35b5090346101c757806003193601126101c757610562611031565b90602435918215158093036106025733156105eb576001600160a01b03169283156105d657503384526005602052808420835f52602052805f2060ff1981541660ff8416179055519081527f17307eab39ab6107e8899845ad3d59bd9653f200f220920489ca2b5937696c3160203392a380f35b836024925191630b61174360e31b8352820152fd5b815163a9fbf51f60e01b8152808501869052602490fd5b8480fd5b5090346101c75760203660031901126101c757813591610625836114d8565b336001600160a01b03909116036106765750818352600a602052822080546001600160a01b03191690557faa868910c873ec5fb91b6071ab6070c05a4c6f1984566ef207f7de63c53148ea8280a280f35b90516336b6b89560e01b8152fd5b50913461028657806003193601126102865781519181600192600154938460011c9160018616958615610784575b6020968785108114610771578899509688969785829a5291825f1461074a5750506001146106ee575b5050506103e692916103d79103856110c2565b9190869350600183527fb10e2d527612073b26eecdfd717e6a320cf44b4afac2b0732d9fcbe2b7fa0cf65b82841061073257505050820101816103d76103e66106db565b8054848a018601528895508794909301928101610719565b60ff19168782015293151560051b860190930193508492506103d791506103e690506106db565b634e487b7160e01b835260228a52602483fd5b92607f16926106b2565b50503461021957816003193601126102195760065490516001600160a01b039091168152602090f35b50503461021957816003193601126102195760095490516001600160a01b039091168152602090f35b50346101c75760203660031901126101c757358252600b6020908152918190205490516001600160a01b039091168152f35b50919034610a495760209283600319360112610a4957610830611031565b6008546001600160a01b0393919084163303610b5857600754935f1991828614610b455760018601600755818116928315610b2f57865f526002895282855f205416936108e58515159384610aff575b825f5260038c52875f2060018154019055895f5260028c528b885f20976001600160601b0360a01b98858a825416179055868c86837fddf252ad1be2c89b69c2b068fc378daa952ba7f163c4a11628f55a4df523b3ef5f80a4610a84575b5050611354565b918201918211610a71575f52600c8952845f20815f52895286855f2055865f52600d8952845f2055610a5b576e5af43d82803e903d91602b57fd5bf3600954763d602d80600a3d3981f3363d3d373d3d3d363d7300000062ffffff8260881c16175f526effffffffffffffffffffffffffffff199060781b16178752603760095ff016928315610a4d57833b15610a4957825163cd6dc68760e01b815230828201908152602081018790529091905f9083908190604001038183895af18015610a3f576109ed575b505083917f470292d5e9c87e6d5a100a14c56a434c9f25e9e2be1d5efa70c3b5f9aeda505f91838752600b88528482882091825416179055519480a38152f35b9091955067ffffffffffffffff8211610a2c575081525f93817f470292d5e9c87e6d5a100a14c56a434c9f25e9e2be1d5efa70c3b5f9aeda505f6109ad565b604190634e487b7160e01b5f525260245ffd5b84513d5f823e3d90fd5b5f80fd5b825163b06ebf3d60e01b8152fd5b82516339e3563760e11b81525f81860152602490fd5b601187634e487b7160e01b5f525260245ffd5b600d610a8f82611354565b928d5f52528d8a5f205490838203610ac6575b50508b5f525f8a8120555f52600c8d52885f20905f528c525f888120558b5f6108de565b600d90835f52600c81528c5f20855f5281528c805f20548091865f52600c8452805f20865f5284525f20555f52528a5f20555f8e610aa2565b5f8a815260046020526040902080546001600160a01b0319169055865f5260038c52875f20848154019055610880565b8451633250574960e11b81525f81880152602490fd5b601185634e487b7160e01b5f525260245ffd5b5051637461dafb60e01b8152fd5b34610a49575f366003190112610a4957610b7e611512565b600680546001600160a01b031981169091555f906001600160a01b03167f8be0079c531659141344cd1fd0a4f28419497f9722a3daafe3b4186f6b6457e08280a3005b8234610a49576020366003190112610a4957602090610be6610be1611031565b611354565b9051908152f35b509034610a49576020366003190112610a4957610c0c602092356114d8565b90516001600160a01b039091168152f35b509034610a49576020366003190112610a4957602091355f52600a825260018060a01b03815f2054169051908152f35b8234610a4957610c7590610c603661105d565b91925192610c6d84611092565b5f845261138a565b005b5034610a495781600319360112610a4957803590610c93611047565b92610c9d836114d8565b6001600160a01b03929033908416036106765750825f52600a6020525f20921691826001600160601b0360a01b8254161790557f229701d61fe6886c10bf08e5be20e18fd66df8b9d3ce1412cf7b3e82eba59baf5f80a3005b509034610a495780600319360112610a4957610d10611031565b60243590610d1d81611354565b821015610d49576020935060018060a01b03165f52600c8352815f20905f528252805f20549051908152f35b5050516330cd747160e01b8152fd5b34610a4957610c75610d693661105d565b91611100565b509034610a495780600319360112610a4957610d89611031565b91602435610d96816114d8565b33151580610e38575b80610e11575b610dfb576001600160a01b039485169482918691167f8c5be1e5ebec7d5bd14f71427d1e84f3dd0314c0f7b2291e5b200ac8c7c3b9255f80a45f526020525f20906001600160601b0360a01b8254161790555f80f35b835163a9fbf51f60e01b81523381850152602490fd5b5060018060a01b0381165f526005602052835f20335f5260205260ff845f20541615610da5565b506001600160a01b038116331415610d9f565b509034610a49576020366003190112610a49578160209235610e6c816114d8565b505f52825260018060a01b03815f2054169051908152f35b509034610a49575f366003190112610a49578051905f905f549160018360011c9060018516948515610f77575b6020958684108114610f6457838852879493929187908215610f42575050600114610ee9575b50506103e692916103d79103856110c2565b5f80805286935091907f290decd9548b62a8d60345a988386fc84ba6bc95484008f6362f93160ef3e5635b828410610f2a57505050820101816103d7610ed7565b8054848a018601528895508794909301928101610f14565b60ff19168682015292151560051b850190920192508391506103d79050610ed7565b602289634e487b7160e01b5f525260245ffd5b91607f1691610eb1565b8234610a49576020366003190112610a4957359063ffffffff60e01b8216809203610a49576020916380ac58cd60e01b8114908115610fda575b8115610fc9575b5015158152f35b6301ffc9a760e01b14905083610fc2565b635b5e139f60e01b81149150610fbb565b5f5b838110610ffc5750505f910152565b8181015183820152602001610fed565b9060209161102581518092818552858086019101610feb565b601f01601f1916010190565b600435906001600160a01b0382168203610a4957565b602435906001600160a01b0382168203610a4957565b6060906003190112610a49576001600160a01b03906004358281168103610a4957916024359081168103610a49579060443590565b6020810190811067ffffffffffffffff8211176110ae57604052565b634e487b7160e01b5f52604160045260245ffd5b90601f8019910116810190811067ffffffffffffffff8211176110ae57604052565b67ffffffffffffffff81116110ae57601f01601f191660200190565b6001600160a01b038281169391841561133c57825f5260206002815260409583875f20541695331515806112ae575b5061119a908715158061127d575b835f5260038552895f2060018154019055875f5260028552895f20846001600160601b0360a01b82541617905587848a7fddf252ad1be2c89b69c2b068fc378daa952ba7f163c4a11628f55a4df523b3ef5f80a461120857611354565b5f198101929083116111f457600d915f52600c8152875f20835f52815285885f2055855f5252855f205516928383036111d35750505050565b6064945051926364283d7b60e01b8452600484015260248301526044820152fd5b634e487b7160e01b5f52601160045260245ffd5b61121188611354565b875f52600d8552895f2054818103611246575b50875f525f8a812055885f52600c8552895f20905f5284525f89812055611354565b895f52600c86528a5f20825f5286528a5f20548a5f52600c87528b5f20825f528752808c5f20555f52600d86528a5f20555f611224565b5f88815260046020526040812080546001600160a01b0319169055898152600386528a902080545f1901905561113d565b806112fb575b156112bf575f61112f565b8786886112dc576024915190637e27328960e01b82526004820152fd5b905163177e802f60e01b81523360048201526024810191909152604490fd5b503387148015611320575b806112b45750855f52600483523385895f205416146112b4565b50865f5260058352875f20335f52835260ff885f205416611306565b604051633250574960e11b81525f6004820152602490fd5b6001600160a01b03168015611372575f52600360205260405f205490565b6040516322718ad960e21b81525f6004820152602490fd5b9192611397848385611100565b813b6113a4575b50505050565b604051630a85bd0160e11b8082523360048301526001600160a01b039485166024830152604482019590955260806064820152602095939092169391908590829081906113f590608483019061100c565b03815f885af15f9181611498575b50611462575050503d5f1461145a573d9161141d836110e4565b9261142b60405194856110c2565b83523d5f8285013e5b8251928361145557604051633250574960e11b815260048101849052602490fd5b019050fd5b606091611434565b9193506001600160e01b03199091160361148057505f80808061139e565b60249060405190633250574960e11b82526004820152fd5b9091508581813d83116114d1575b6114b081836110c2565b81010312610a4957516001600160e01b031981168103610a4957905f611403565b503d6114a6565b5f818152600260205260409020546001600160a01b03169081156114fa575090565b60249060405190637e27328960e01b82526004820152fd5b6006546001600160a01b0316330361152657565b60405163118cdaa760e01b8152336004820152602490fdfea2646970667358221220440bd8fa7892cd416c4617d55237d4ab7f87bc37770783d7a0cf7d5d101ea24a64736f6c63430008180033","linkReferences":{}},"methodIdentifiers":{"approve(address,uint256)":"095ea7b3","balanceOf(address)":"70a08231","clearController(uint256)":"a20a60c6","controllerOf(uint256)":"5dd8f6aa","gameCore()":"e2cfe2ef","getApproved(uint256)":"081812fc","isApprovedForAll(address,address)":"e985e9c5","mintTo(address)":"755edd17","name()":"06fdde03","owner()":"8da5cb5b","ownerOf(uint256)":"6352211e","renounceOwnership()":"715018a6","safeTransferFrom(address,address,uint256)":"42842e0e","safeTransferFrom(address,address,uint256,bytes)":"b88d4fde","setApprovalForAll(address,bool)":"a22cb465","setController(uint256,address)":"3e5779ee","setGameCore(address)":"cadbcc6d","supportsInterface(bytes4)":"01ffc9a7","symbol()":"95d89b41","tokenOfOwnerByIndex(address,uint256)":"2f745c59","tokenURI(uint256)":"c87b56dd","totalMinted()":"a2309ff8","transferFrom(address,address,uint256)":"23b872dd","transferOwnership(address)":"f2fde38b","walletImplementation()":"8117abc1","wallets(uint256)":"7ad71f72"},"id":89}