{"abi":[{"type":"constructor","inputs":[],"stateMutability":"nonpayable"},{"type":"function","name":"craftDurationBlocks","inputs":[],"outputs":[{"name":"","type":"uint256","internalType":"uint256"}],"stateMutability":"view"},{"type":"function","name":"halvingIntervalBlocks","inputs":[],"outputs":[{"name":"","type":"uint256","internalType":"uint256"}],"stateMutability":"view"},{"type":"function","name":"landPrice","inputs":[],"outputs":[{"name":"","type":"uint256","internalType":"uint256"}],"stateMutability":"view"},{"type":"function","name":"mapHeight","inputs":[],"outputs":[{"name":"","type":"uint256","internalType":"uint256"}],"stateMutability":"view"},{"type":"function","name":"mapWidth","inputs":[],"outputs":[{"name":"","type":"uint256","internalType":"uint256"}],"stateMutability":"view"},{"type":"function","name":"mintAmount","inputs":[],"outputs":[{"name":"","type":"uint256","internalType":"uint256"}],"stateMutability":"view"},{"type":"function","name":"mintIntervalBlocks","inputs":[],"outputs":[{"name":"","type":"uint256","internalType":"uint256"}],"stateMutability":"view"},{"type":"function","name":"owner","inputs":[],"outputs":[{"name":"","type":"address","internalType":"address"}],"stateMutability":"view"},{"type":"function","name":"renounceOwnership","inputs":[],"outputs":[],"stateMutability":"nonpayable"},{"type":"function","name":"setCraftDurationBlocks","inputs":[{"name":"blocks","type":"uint256","internalType":"uint256"}],"outputs":[],"stateMutability":"nonpayable"},{"type":"function","name":"setHalvingIntervalBlocks","inputs":[{"name":"blocks","type":"uint256","internalType":"uint256"}],"outputs":[],"stateMutability":"nonpayable"},{"type":"function","name":"setLandPrice","inputs":[{"name":"price","type":"uint256","internalType":"uint256"}],"outputs":[],"stateMutability":"nonpayable"},{"type":"function","name":"setMapDimensions","inputs":[{"name":"width","type":"uint256","internalType":"uint256"},{"name":"height","type":"uint256","internalType":"uint256"}],"outputs":[],"stateMutability":"nonpayable"},{"type":"function","name":"setMintAmount","inputs":[{"name":"amount","type":"uint256","internalType":"uint256"}],"outputs":[],"stateMutability":"nonpayable"},{"type":"function","name":"setMintIntervalBlocks","inputs":[{"name":"interval","type":"uint256","internalType":"uint256"}],"outputs":[],"stateMutability":"nonpayable"},{"type":"function","name":"setStabilizationBlocks","inputs":[{"name":"blocks","type":"uint256","internalType":"uint256"}],"outputs":[],"stateMutability":"nonpayable"},{"type":"function","name":"stabilizationBlocks","inputs":[],"outputs":[{"name":"","type":"uint256","internalType":"uint256"}],"stateMutability":"view"},{"type":"function","name":"transferOwnership","inputs":[{"name":"newOwner","type":"address","internalType":"address"}],"outputs":[],"stateMutability":"nonpayable"},{"type":"event","name":"GlobalConfigUpdated","inputs":[{"name":"mapWidth","type":"uint256","indexed":false,"internalType":"uint256"},{"name":"mapHeight","type":"uint256","indexed":false,"internalType":"uint256"},{"name":"mintIntervalBlocks","type":"uint256","indexed":false,"internalType":"uint256"},{"name":"mintAmount","type":"uint256","indexed":false,"internalType":"uint256"},{"name":"stabilizationBlocks","type":"uint256","indexed":false,"internalType":"uint256"},{"name":"craftDurationBlocks","type":"uint256","indexed":false,"internalType":"uint256"},{"name":"halvingIntervalBlocks","type":"uint256","indexed":false,"internalType":"uint256"},{"name":"landPrice","type":"uint256","indexed":false,"internalType":"uint256"}],"anonymous":false},{"type":"event","name":"OwnershipTransferred","inputs":[{"name":"previousOwner","type":"address","indexed":true,"internalType":"address"},{"name":"newOwner","type":"address","indexed":true,"internalType":"address"}],"anonymous":false},{"type":"error","name":"InvalidMapDimensions","inputs":[]},{"type":"error","name":"OwnableInvalidOwner","inputs":[{"name":"owner","type":"address","internalType":"address"}]},{"type":"error","name":"OwnableUnauthorizedAccount","inputs":[{"name":"account","type":"address","internalType":"address"}]}],"bytecode":{"object":"0x608080604052346100b457331561009f575f8054336001600160a01b03198216811783556040519290916001600160a01b0316907f8be0079c531659141344cd1fd0a4f28419497f9722a3daafe3b4186f6b6457e09080a36127108060015560025560646003556802b5e3af16b1880000600455610fa0600555610e10600655625c490060075568056bc75e2d631000006008556104e290816100b98239f35b631e4fbdf760e01b81525f6004820152602490fd5b5f80fdfe604060808152600480361015610013575f80fd5b5f3560e01c908163022565f1146103f157816313d0fb7f146103d35781633a266efb146103ae57816351aaa477146103895781635a2bcc181461036d5781635b2f9cc314610318578163715018a6146102c15781638c27639e1461029c5781638d0491901461027e5781638da5cb5b146102575781638f8554e8146102395781639fdc278e1461021b578163a516dda5146101f6578163c7cd997f146101cf578163e70b5259146101b1578163f2fde38b1461012257508063f55c9fee146101045763fc22c15c146100e3575f80fd5b34610100575f366003190112610100576020906008549051908152f35b5f80fd5b5034610100575f366003190112610100576020906007549051908152f35b8234610100576020366003190112610100576001600160a01b0382358181169391929084900361010057610154610416565b831561019b5750505f54826bffffffffffffffffffffffff60a01b8216175f55167f8be0079c531659141344cd1fd0a4f28419497f9722a3daafe3b4186f6b6457e05f80a3005b905f6024925191631e4fbdf760e01b8352820152fd5b8234610100575f366003190112610100576020906002549051908152f35b34610100576020366003190112610100576101e8610416565b803590556101f4610441565b005b346101005760203660031901126101005761020f610416565b356003556101f4610441565b8234610100575f366003190112610100576020906006549051908152f35b8234610100575f366003190112610100576020906003549051908152f35b8234610100575f366003190112610100575f5490516001600160a01b039091168152602090f35b8234610100575f366003190112610100576020906001549051908152f35b34610100576020366003190112610100576102b5610416565b356007556101f4610441565b34610100575f366003190112610100576102d9610416565b5f80546001600160a01b0319811682556001600160a01b03167f8be0079c531659141344cd1fd0a4f28419497f9722a3daafe3b4186f6b6457e08280a3005b90503461010057816003193601126101005780359060243592610339610416565b82151580610364575b156103575750506001556002556101f4610441565b516348c3301160e01b8152fd5b50831515610342565b8234610100575f36600319011261010057602091549051908152f35b34610100576020366003190112610100576103a2610416565b356005556101f4610441565b34610100576020366003190112610100576103c7610416565b356006556101f4610441565b8234610100575f366003190112610100576020906005549051908152f35b346101005760203660031901126101005761040a610416565b356008556101f4610441565b5f546001600160a01b0316330361042957565b60405163118cdaa760e01b8152336004820152602490fd5b7f9e4d7d58977fad6b5dff76d30152ee095a49edb185464cfdc244a0674b26d383610100600154600254600354600454600554600654916007549360085495604051978852602088015260408701526060860152608085015260a084015260c083015260e0820152a156fea2646970667358221220e784b2f3ca8edba9fcbe5ca7dcc301487917c17c8f0909b717c339a5107819c264736f6c63430008180033","linkReferences":{}},"methodIdentifiers":{"craftDurationBlocks()":"9fdc278e","halvingIntervalBlocks()":"f55c9fee","landPrice()":"fc22c15c","mapHeight()":"e70b5259","mapWidth()":"8d049190","mintAmount()":"5a2bcc18","mintIntervalBlocks()":"8f8554e8","owner()":"8da5cb5b","renounceOwnership()":"715018a6","setCraftDurationBlocks(uint256)":"3a266efb","setHalvingIntervalBlocks(uint256)":"8c27639e","setLandPrice(uint256)":"022565f1","setMapDimensions(uint256,uint256)":"5b2f9cc3","setMintAmount(uint256)":"c7cd997f","setMintIntervalBlocks(uint256)":"a516dda5","setStabilizationBlocks(uint256)":"51aaa477","stabilizationBlocks()":"13d0fb7f","transferOwnership(address)":"f2fde38b"},"id":82}