{"abi":[{"type":"constructor","inputs":[],"stateMutability":"nonpayable"},{"type":"function","name":"approve","inputs":[{"name":"to","type":"address","internalType":"address"},{"name":"tokenId","type":"uint256","internalType":"uint256"}],"outputs":[],"stateMutability":"nonpayable"},{"type":"function","name":"balanceOf","inputs":[{"name":"owner","type":"address","internalType":"address"}],"outputs":[{"name":"","type":"uint256","internalType":"uint256"}],"stateMutability":"view"},{"type":"function","name":"gameCore","inputs":[],"outputs":[{"name":"","type":"address","internalType":"address"}],"stateMutability":"view"},{"type":"function","name":"getApproved","inputs":[{"name":"tokenId","type":"uint256","internalType":"uint256"}],"outputs":[{"name":"","type":"address","internalType":"address"}],"stateMutability":"view"},{"type":"function","name":"isApprovedForAll","inputs":[{"name":"owner","type":"address","internalType":"address"},{"name":"operator","type":"address","internalType":"address"}],"outputs":[{"name":"","type":"bool","internalType":"bool"}],"stateMutability":"view"},{"type":"function","name":"mint","inputs":[{"name":"to","type":"address","internalType":"address"},{"name":"landId","type":"uint256","internalType":"uint256"}],"outputs":[],"stateMutability":"nonpayable"},{"type":"function","name":"name","inputs":[],"outputs":[{"name":"","type":"string","internalType":"string"}],"stateMutability":"view"},{"type":"function","name":"owner","inputs":[],"outputs":[{"name":"","type":"address","internalType":"address"}],"stateMutability":"view"},{"type":"function","name":"ownerOf","inputs":[{"name":"tokenId","type":"uint256","internalType":"uint256"}],"outputs":[{"name":"","type":"address","internalType":"address"}],"stateMutability":"view"},{"type":"function","name":"renounceOwnership","inputs":[],"outputs":[],"stateMutability":"nonpayable"},{"type":"function","name":"safeTransferFrom","inputs":[{"name":"from","type":"address","internalType":"address"},{"name":"to","type":"address","internalType":"address"},{"name":"tokenId","type":"uint256","internalType":"uint256"}],"outputs":[],"stateMutability":"nonpayable"},{"type":"function","name":"safeTransferFrom","inputs":[{"name":"from","type":"address","internalType":"address"},{"name":"to","type":"address","internalType":"address"},{"name":"tokenId","type":"uint256","internalType":"uint256"},{"name":"data","type":"bytes","internalType":"bytes"}],"outputs":[],"stateMutability":"nonpayable"},{"type":"function","name":"setApprovalForAll","inputs":[{"name":"operator","type":"address","internalType":"address"},{"name":"approved","type":"bool","internalType":"bool"}],"outputs":[],"stateMutability":"nonpayable"},{"type":"function","name":"setGameCore","inputs":[{"name":"_core","type":"address","internalType":"address"}],"outputs":[],"stateMutability":"nonpayable"},{"type":"function","name":"supportsInterface","inputs":[{"name":"interfaceId","type":"bytes4","internalType":"bytes4"}],"outputs":[{"name":"","type":"bool","internalType":"bool"}],"stateMutability":"view"},{"type":"function","name":"symbol","inputs":[],"outputs":[{"name":"","type":"string","internalType":"string"}],"stateMutability":"view"},{"type":"function","name":"tokenURI","inputs":[{"name":"tokenId","type":"uint256","internalType":"uint256"}],"outputs":[{"name":"","type":"string","internalType":"string"}],"stateMutability":"view"},{"type":"function","name":"transferFrom","inputs":[{"name":"from","type":"address","internalType":"address"},{"name":"to","type":"address","internalType":"address"},{"name":"tokenId","type":"uint256","internalType":"uint256"}],"outputs":[],"stateMutability":"nonpayable"},{"type":"function","name":"transferOwnership","inputs":[{"name":"newOwner","type":"address","internalType":"address"}],"outputs":[],"stateMutability":"nonpayable"},{"type":"event","name":"Approval","inputs":[{"name":"owner","type":"address","indexed":true,"internalType":"address"},{"name":"approved","type":"address","indexed":true,"internalType":"address"},{"name":"tokenId","type":"uint256","indexed":true,"internalType":"uint256"}],"anonymous":false},{"type":"event","name":"ApprovalForAll","inputs":[{"name":"owner","type":"address","indexed":true,"internalType":"address"},{"name":"operator","type":"address","indexed":true,"internalType":"address"},{"name":"approved","type":"bool","indexed":false,"internalType":"bool"}],"anonymous":false},{"type":"event","name":"GameCoreSet","inputs":[{"name":"gameCore","type":"address","indexed":true,"internalType":"address"}],"anonymous":false},{"type":"event","name":"OwnershipTransferred","inputs":[{"name":"previousOwner","type":"address","indexed":true,"internalType":"address"},{"name":"newOwner","type":"address","indexed":true,"internalType":"address"}],"anonymous":false},{"type":"event","name":"Transfer","inputs":[{"name":"from","type":"address","indexed":true,"internalType":"address"},{"name":"to","type":"address","indexed":true,"internalType":"address"},{"name":"tokenId","type":"uint256","indexed":true,"internalType":"uint256"}],"anonymous":false},{"type":"error","name":"ERC721IncorrectOwner","inputs":[{"name":"sender","type":"address","internalType":"address"},{"name":"tokenId","type":"uint256","internalType":"uint256"},{"name":"owner","type":"address","internalType":"address"}]},{"type":"error","name":"ERC721InsufficientApproval","inputs":[{"name":"operator","type":"address","internalType":"address"},{"name":"tokenId","type":"uint256","internalType":"uint256"}]},{"type":"error","name":"ERC721InvalidApprover","inputs":[{"name":"approver","type":"address","internalType":"address"}]},{"type":"error","name":"ERC721InvalidOperator","inputs":[{"name":"operator","type":"address","internalType":"address"}]},{"type":"error","name":"ERC721InvalidOwner","inputs":[{"name":"owner","type":"address","internalType":"address"}]},{"type":"error","name":"ERC721InvalidReceiver","inputs":[{"name":"receiver","type":"address","internalType":"address"}]},{"type":"error","name":"ERC721InvalidSender","inputs":[{"name":"sender","type":"address","internalType":"address"}]},{"type":"error","name":"ERC721NonexistentToken","inputs":[{"name":"tokenId","type":"uint256","internalType":"uint256"}]},{"type":"error","name":"OnlyGameCore","inputs":[]},{"type":"error","name":"OwnableInvalidOwner","inputs":[{"name":"owner","type":"address","internalType":"address"}]},{"type":"error","name":"OwnableUnauthorizedAccount","inputs":[{"name":"account","type":"address","internalType":"address"}]},{"type":"error","name":"SpatialHookFromEntityNotRegistered","inputs":[]},{"type":"error","name":"SpatialHookPositionsMustMatch","inputs":[]},{"type":"error","name":"SpatialHookToEntityNotRegistered","inputs":[]}],"bytecode":{"object":"0x60803462000345576001600160401b03906040908082018381118282101762000263578252600c81526020926b1059d95b9d189bde13185b9960a21b8483015282519383850185811083821117620002635784526005855264105310539160da1b8186015282519082821162000263575f54916001948584811c941680156200033a575b8385101462000244578190601f94858111620002e7575b50839085831160011462000283575f9262000277575b50505f19600383901b1c191690851b175f555b8551928311620002635783548481811c9116801562000258575b828210146200024457828111620001fc575b5080918311600114620001975750819293945f926200018b575b50505f19600383901b1c191690821b1790555b3315620001755760068054336001600160a01b0319821681179092559151916001600160a01b03167f8be0079c531659141344cd1fd0a4f28419497f9722a3daafe3b4186f6b6457e05f80a36110bd90816200034a8239f35b51631e4fbdf760e01b81525f6004820152602490fd5b015190505f8062000109565b90601f19831695845f52825f20925f905b888210620001e45750508385969710620001cb575b505050811b0190556200011c565b01515f1960f88460031b161c191690555f8080620001bd565b808785968294968601518155019501930190620001a8565b845f52815f208380860160051c8201928487106200023a575b0160051c019085905b8281106200022e575050620000ef565b5f81550185906200021e565b9250819262000215565b634e487b7160e01b5f52602260045260245ffd5b90607f1690620000dd565b634e487b7160e01b5f52604160045260245ffd5b015190505f80620000b0565b90879350601f198316915f8052855f20925f5b87828210620002d05750508411620002b7575b505050811b015f55620000c3565b01515f1960f88460031b161c191690555f8080620002a9565b8385015186558b9790950194938401930162000296565b9091505f8052835f208580850160051c82019286861062000330575b918991869594930160051c01915b828110620003215750506200009a565b5f815585945089910162000311565b9250819262000303565b93607f169362000083565b5f80fdfe608060409080825260049081361015610016575f80fd5b5f3560e01c90816301ffc9a714610a6e5750806306fdde03146109a7578063081812fc1461096e578063095ea7b31461089257806323b872dd1461087b57806340c10f191461062b57806342842e0e146106035780636352211e146105d357806370a082311461057e578063715018a6146105235780638da5cb5b146104fb57806395d89b41146103eb578063a22cb46514610333578063b88d4fde146102ac578063c87b56dd14610259578063cadbcc6d146101f3578063e2cfe2ef146101cb578063e985e9c51461017d5763f2fde38b146100f1575f80fd5b346101795760203660031901126101795761010a610b16565b9061011361105b565b6001600160a01b03918216928315610163575050600654826001600160601b0360a01b821617600655167f8be0079c531659141344cd1fd0a4f28419497f9722a3daafe3b4186f6b6457e05f80a3005b905f6024925191631e4fbdf760e01b8352820152fd5b5f80fd5b8234610179578060031936011261017957602090610199610b16565b6101a1610b2c565b9060018060a01b038091165f5260058452825f2091165f52825260ff815f20541690519015158152f35b8234610179575f3660031901126101795760075490516001600160a01b039091168152602090f35b346101795760203660031901126101795761020c610b16565b61021461105b565b600780546001600160a01b0319166001600160a01b039290921691821790557f962bae5aed24b76211f2b2cba9c2133a4ee5ae02913cf1af64f7386c1c4b3dd75f80a2005b509034610179576020366003190112610179576102796102a89235610ffd565b505f815161028681610b77565b5280519061029382610b77565b5f825251918291602083526020830190610ad8565b0390f35b509034610179576080366003190112610179576102c7610b16565b6102cf610b2c565b6064359367ffffffffffffffff85116101795736602386011215610179578401356103056102fc82610bc9565b94519485610ba7565b8084523660248287010111610179576020815f9260246103319801838801378501015260443591610eaf565b005b50903461017957806003193601126101795761034d610b16565b90602435918215158093036101795733156103d5576001600160a01b03169283156103c05750335f526005602052805f20835f52602052805f2060ff1981541660ff8416179055519081527f17307eab39ab6107e8899845ad3d59bd9653f200f220920489ca2b5937696c3160203392a3005b836024925191630b61174360e31b8352820152fd5b815163a9fbf51f60e01b81525f81860152602490fd5b509034610179575f366003190112610179578051905f90600191600154928360011c90600185169485156104f1575b60209586841081146104de578388528794939291879082156104bc575050600114610461575b50506102a89291610452910385610ba7565b51928284938452830190610ad8565b9085925060015f527fb10e2d527612073b26eecdfd717e6a320cf44b4afac2b0732d9fcbe2b7fa0cf6915f925b8284106104a45750505082010181610452610440565b8054848a01860152889550879490930192810161048e565b60ff19168682015292151560051b850190920192508391506104529050610440565b602289634e487b7160e01b5f525260245ffd5b91607f169161041a565b8234610179575f3660031901126101795760065490516001600160a01b039091168152602090f35b34610179575f3660031901126101795761053b61105b565b600680546001600160a01b031981169091555f906001600160a01b03167f8be0079c531659141344cd1fd0a4f28419497f9722a3daafe3b4186f6b6457e08280a3005b509034610179576020366003190112610179576001600160a01b036105a1610b16565b1680156105bd57602092505f5260038252805f20549051908152f35b81516322718ad960e21b81525f81850152602490fd5b509034610179576020366003190112610179576105f260209235610ffd565b90516001600160a01b039091168152f35b8234610179576103319061061636610b42565b9192519261062384610b77565b5f8452610eaf565b5034610179578160031936011261017957610644610b16565b60243560018060a01b0380600754169283330361086b57811692831561085557825f52600260205281865f205416908115158061084d575b61073b575b5050815f526002602052845f205416918215159283610709575b815f526003602052855f2060018154019055825f526002602052855f20826001600160601b0360a01b8254161790557fddf252ad1be2c89b69c2b068fc378daa952ba7f163c4a11628f55a4df523b3ef5f80a46106f457005b5f60249251916339e3563760e11b8352820152fd5b5f83815260046020526040902080546001600160a01b0319169055805f526003602052855f205f19815401905561069b565b8651630fa51d1f60e31b92838252878201526060908181602481865afa93841561080f575f80925f96610829575b501561081957829060248b518096819382528b8d8301525afa92831561080f575f905f935f956107da575b5050156107ca571491826107c0575b5050156107b1575f80610681565b8451624b2ad760e91b81528490fd5b1490505f806107a3565b8851631afe2c3560e01b81528890fd5b91509193506107fe9250803d10610808575b6107f68183610ba7565b810190611037565b9290915f80610794565b503d6107ec565b89513d5f823e3d90fd5b8951632700756560e11b81528990fd5b919550506108449150823d8411610808576107f68183610ba7565b9490915f610769565b50600161067c565b8551633250574960e11b81525f81870152602490fd5b8551637461dafb60e01b81528590fd5b346101795761033161088c36610b42565b91610be5565b5090346101795780600319360112610179576108ac610b16565b916024356108b981610ffd565b3315158061095b575b80610934575b61091e576001600160a01b039485169482918691167f8c5be1e5ebec7d5bd14f71427d1e84f3dd0314c0f7b2291e5b200ac8c7c3b9255f80a45f526020525f20906001600160601b0360a01b8254161790555f80f35b835163a9fbf51f60e01b81523381850152602490fd5b5060018060a01b0381165f526005602052835f20335f5260205260ff845f205416156108c8565b506001600160a01b0381163314156108c2565b50903461017957602036600319011261017957816020923561098f81610ffd565b505f52825260018060a01b03815f2054169051908152f35b509034610179575f366003190112610179578051905f905f549160018360011c9060018516948515610a64575b60209586841081146104de578388528794939291879082156104bc575050600114610a0b5750506102a89291610452910385610ba7565b5f80805286935091907f290decd9548b62a8d60345a988386fc84ba6bc95484008f6362f93160ef3e5635b828410610a4c5750505082010181610452610440565b8054848a018601528895508794909301928101610a36565b91607f16916109d4565b823461017957602036600319011261017957359063ffffffff60e01b8216809203610179576020916380ac58cd60e01b8114908115610ac7575b8115610ab6575b5015158152f35b6301ffc9a760e01b14905083610aaf565b635b5e139f60e01b81149150610aa8565b91908251928382525f5b848110610b02575050825f602080949584010152601f8019910116010190565b602081830181015184830182015201610ae2565b600435906001600160a01b038216820361017957565b602435906001600160a01b038216820361017957565b6060906003190112610179576001600160a01b0390600435828116810361017957916024359081168103610179579060443590565b6020810190811067ffffffffffffffff821117610b9357604052565b634e487b7160e01b5f52604160045260245ffd5b90601f8019910116810190811067ffffffffffffffff821117610b9357604052565b67ffffffffffffffff8111610b9357601f01601f191660200190565b6001600160a01b039182169290918315610e9757815f52602092600284528260409583875f20541680151580610e8f575b610d7f575b50815f526002865283875f2054169533151580610ced575b5060029087610cbc575b825f5260038152885f2060018154019055835f5252865f20816001600160601b0360a01b825416179055857fddf252ad1be2c89b69c2b068fc378daa952ba7f163c4a11628f55a4df523b3ef5f80a41692838303610c9b5750505050565b6064945051926364283d7b60e01b8452600484015260248301526044820152fd5b5f84815260046020526040812080546001600160a01b03191690558881526003825289902080545f19019055610c3d565b9192509080610d3e575b15610d05579084915f610c33565b868587610d22576024915190637e27328960e01b82526004820152fd5b604491519063177e802f60e01b82523360048301526024820152fd5b503386148015610d63575b80610cf75750845f52600481523384885f20541614610cf7565b50855f5260058152865f20335f52815260ff875f205416610d49565b90915083600754168751630fa51d1f60e31b9283825260048201526060908181602481865afa938415610e50575f80925f96610e6b575b5015610e5a57829060248c518096819382528960048301525afa928315610e50575f905f935f95610e2b575b505015610e1a57149182610e10575b505015610e005783905f610c1b565b8551624b2ad760e91b8152600490fd5b1490505f80610df1565b8951631afe2c3560e01b8152600490fd5b9150919350610e469250803d10610808576107f68183610ba7565b9290915f80610de2565b8a513d5f823e3d90fd5b8a51632700756560e11b8152600490fd5b91955050610e869150823d8411610808576107f68183610ba7565b9490915f610db6565b506001610c16565b604051633250574960e11b81525f6004820152602490fd5b9192610ebc848385610be5565b813b610ec9575b50505050565b604051630a85bd0160e11b8082523360048301526001600160a01b03948516602483015260448201959095526080606482015260209593909216939190859082908190610f1a906084830190610ad8565b03815f885af15f9181610fbd575b50610f87575050503d5f14610f7f573d91610f4283610bc9565b92610f506040519485610ba7565b83523d5f8285013e5b82519283610f7a57604051633250574960e11b815260048101849052602490fd5b019050fd5b606091610f59565b9193506001600160e01b031990911603610fa557505f808080610ec3565b60249060405190633250574960e11b82526004820152fd5b9091508581813d8311610ff6575b610fd58183610ba7565b8101031261017957516001600160e01b03198116810361017957905f610f28565b503d610fcb565b5f818152600260205260409020546001600160a01b031690811561101f575090565b60249060405190637e27328960e01b82526004820152fd5b90816060910312610179578051801515810361017957916040602083015192015190565b6006546001600160a01b0316330361106f57565b60405163118cdaa760e01b8152336004820152602490fdfea264697066735822122072626014cf69e9f90e321f806fd38a7ac2c8816d2b5b94c60d714f944d211f8e64736f6c63430008180033","linkReferences":{}},"methodIdentifiers":{"approve(address,uint256)":"095ea7b3","balanceOf(address)":"70a08231","gameCore()":"e2cfe2ef","getApproved(uint256)":"081812fc","isApprovedForAll(address,address)":"e985e9c5","mint(address,uint256)":"40c10f19","name()":"06fdde03","owner()":"8da5cb5b","ownerOf(uint256)":"6352211e","renounceOwnership()":"715018a6","safeTransferFrom(address,address,uint256)":"42842e0e","safeTransferFrom(address,address,uint256,bytes)":"b88d4fde","setApprovalForAll(address,bool)":"a22cb465","setGameCore(address)":"cadbcc6d","supportsInterface(bytes4)":"01ffc9a7","symbol()":"95d89b41","tokenURI(uint256)":"c87b56dd","transferFrom(address,address,uint256)":"23b872dd","transferOwnership(address)":"f2fde38b"},"id":84}