{"abi":[{"type":"receive","stateMutability":"payable"},{"type":"function","name":"execute","inputs":[{"name":"to","type":"address","internalType":"address"},{"name":"value","type":"uint256","internalType":"uint256"},{"name":"data","type":"bytes","internalType":"bytes"}],"outputs":[{"name":"","type":"bytes","internalType":"bytes"}],"stateMutability":"nonpayable"},{"type":"function","name":"initialize","inputs":[{"name":"_roleContract","type":"address","internalType":"address"},{"name":"_roleId","type":"uint256","internalType":"uint256"}],"outputs":[],"stateMutability":"nonpayable"},{"type":"function","name":"onERC1155BatchReceived","inputs":[{"name":"","type":"address","internalType":"address"},{"name":"","type":"address","internalType":"address"},{"name":"","type":"uint256[]","internalType":"uint256[]"},{"name":"","type":"uint256[]","internalType":"uint256[]"},{"name":"","type":"bytes","internalType":"bytes"}],"outputs":[{"name":"","type":"bytes4","internalType":"bytes4"}],"stateMutability":"nonpayable"},{"type":"function","name":"onERC1155Received","inputs":[{"name":"","type":"address","internalType":"address"},{"name":"","type":"address","internalType":"address"},{"name":"","type":"uint256","internalType":"uint256"},{"name":"","type":"uint256","internalType":"uint256"},{"name":"","type":"bytes","internalType":"bytes"}],"outputs":[{"name":"","type":"bytes4","internalType":"bytes4"}],"stateMutability":"nonpayable"},{"type":"function","name":"onERC721Received","inputs":[{"name":"","type":"address","internalType":"address"},{"name":"","type":"address","internalType":"address"},{"name":"","type":"uint256","internalType":"uint256"},{"name":"","type":"bytes","internalType":"bytes"}],"outputs":[{"name":"","type":"bytes4","internalType":"bytes4"}],"stateMutability":"nonpayable"},{"type":"function","name":"roleContract","inputs":[],"outputs":[{"name":"","type":"address","internalType":"address"}],"stateMutability":"view"},{"type":"function","name":"roleId","inputs":[],"outputs":[{"name":"","type":"uint256","internalType":"uint256"}],"stateMutability":"view"},{"type":"function","name":"supportsInterface","inputs":[{"name":"interfaceId","type":"bytes4","internalType":"bytes4"}],"outputs":[{"name":"","type":"bool","internalType":"bool"}],"stateMutability":"view"},{"type":"event","name":"Initialized","inputs":[{"name":"version","type":"uint64","indexed":false,"internalType":"uint64"}],"anonymous":false},{"type":"error","name":"CallFailed","inputs":[]},{"type":"error","name":"InvalidInitialization","inputs":[]},{"type":"error","name":"NotController","inputs":[]},{"type":"error","name":"NotInitializing","inputs":[]},{"type":"error","name":"NotOwner","inputs":[]}],"bytecode":{"object":"0x6080806040523461001657610714908161001b8239f35b5f80fdfe6080604090808252600480361015610021575b505050361561001f575f80fd5b005b5f3560e01c91826301ffc9a71461054257508163150b7a02146104ef57816373368a48146104d1578163b61d27f6146102c2578163bc197c811461023e578163cd6dc68714610104578163f23a6e61146100b1575063f89723b814610087578080610012565b346100ad575f3660031901126100ad575f5490516001600160a01b039091168152602090f35b5f80fd5b82346100ad5760a03660031901126100ad576100cb610594565b506100d46105aa565b5060843567ffffffffffffffff81116100ad576020926100f691369101610612565b505163f23a6e6160e01b8152f35b9050346100ad57816003193601126100ad5761011e610594565b907ff0c57e16840df040f15088dc2f81fe391c3923bec73e23a9662efc9c229c6a0091825460ff81861c16159267ffffffffffffffff821680159081610236575b600114908161022c575b159081610223575b50610215575067ffffffffffffffff1981166001178455826101f6575b5060018060a01b03166bffffffffffffffffffffffff60a01b5f5416175f556024356001556101b957005b805468ff00000000000000001916905551600181527fc7f505b2f371ae2175ee4913f4499e1f2633a7b5936321eed1cdaeb6115181d290602090a1005b68ffffffffffffffffff1916680100000000000000011783555f61018e565b855163f92ee8a960e01b8152fd5b9050155f610171565b303b159150610169565b85915061015f565b82346100ad5760a03660031901126100ad57610258610594565b506102616105aa565b5067ffffffffffffffff6044358181116100ad576102829036908501610658565b506064358181116100ad5761029a9036908501610658565b506084359081116100ad576020926102b491369101610612565b505163bc197c8160e01b8152f35b82346100ad5760603660031901126100ad576102dc610594565b67ffffffffffffffff92906044358481116100ad57366023820112156100ad57808301359485116100ad5736602486830101116100ad575f546001548551632eec7b5560e11b8152858101829052602097926001600160a01b0391908216908981602481855afa9081156104c7578a9184915f916104aa575b501693841561042357505050503303610413579160245f939284935b80885193849301833781018481520391602435905af1903d1561040b573d91610399836105f6565b926103a6855194856105c0565b83523d5f8685013e5b156103fd575091815192818492835281519182828501525f5b8381106103e75750505f83830185015250601f01601f19168101030190f35b81810183015187820187015286945082016103c8565b8251633204506f60e01b8152fd5b6060916103af565b84516323019e6760e01b81528490fd5b909192935060248951809481936331a9108f60e11b83528b8301525afa9081156104a0575f91610473575b50163303610463579160245f93928493610371565b84516330cd747160e01b81528490fd5b6104939150883d8a11610499575b61048b81836105c0565b8101906106bf565b8861044e565b503d610481565b87513d5f823e3d90fd5b6104c19150833d85116104995761048b81836105c0565b8c610355565b89513d5f823e3d90fd5b82346100ad575f3660031901126100ad576020906001549051908152f35b82346100ad5760803660031901126100ad57610509610594565b506105126105aa565b5060643567ffffffffffffffff81116100ad5760209261053491369101610612565b5051630a85bd0160e11b8152f35b90346100ad5760203660031901126100ad57359063ffffffff60e01b82168092036100ad57602091630271189760e51b8114908115610583575b5015158152f35b6301ffc9a760e01b1490508361057c565b600435906001600160a01b03821682036100ad57565b602435906001600160a01b03821682036100ad57565b90601f8019910116810190811067ffffffffffffffff8211176105e257604052565b634e487b7160e01b5f52604160045260245ffd5b67ffffffffffffffff81116105e257601f01601f191660200190565b81601f820112156100ad57803590610629826105f6565b9261063760405194856105c0565b828452602083830101116100ad57815f926020809301838601378301015290565b81601f820112156100ad5780359160209167ffffffffffffffff84116105e2578360051b906040519461068d858401876105c0565b855283808601928201019283116100ad578301905b8282106106b0575050505090565b813581529083019083016106a2565b908160209103126100ad57516001600160a01b03811681036100ad579056fea26469706673582212203c700a35856c5361f3baf82ad76e8588822fc4652c6dcf93ad5b22cc5204d5b364736f6c63430008180033","linkReferences":{}},"methodIdentifiers":{"execute(address,uint256,bytes)":"b61d27f6","initialize(address,uint256)":"cd6dc687","onERC1155BatchReceived(address,address,uint256[],uint256[],bytes)":"bc197c81","onERC1155Received(address,address,uint256,uint256,bytes)":"f23a6e61","onERC721Received(address,address,uint256,bytes)":"150b7a02","roleContract()":"f89723b8","roleId()":"73368a48","supportsInterface(bytes4)":"01ffc9a7"},"id":88}